:020000040800F2
:108000000004022025950008217B0608257B060830
:10801000757B0608257B06084D7B0608D99D0B0855
:10802000D99D0B08D99D0B08D99D0B08E5AD0B0810
:10803000D99D0B08D99D0B08D99D0B08D99D0B081C
:10804000D99D0B08613F0C0865400C0899400C084D
:10805000D99D0B08D99D0B088D3D0C08BD3D0C0822
:10806000ED3D0C081D3E0C084D3E0C08EDC30B0801
:1080700019C40B0849C40B0879C40B08A9C40B0820
:10808000D5C40B0805C50B089DC20B08A90E07082F
:10809000BD0E0708D50E0708D99D0B087D3E0C08BC
:1080A000D99D0B08D99D0B08D99D0B08D99D0B08AC
:1080B00041E80B08D99D0B08D99D0B0889CD0B0809
:1080C000B1CD0B08D9CD0B0801CE0B08D99D0B08FB
:1080D000D99D0B08B5EC0B08CDEC0B08E5EC0B08B3
:1080E000E93E0C08953F0C08C93F0C08D99D0B08C8
:1080F000D99D0B08D99D0B08D99D0B0835C50B08D8
:10810000D99D0B0879E20B08D99D0B08D99D0B0866
:10811000FDEC0B08D99D0B08D99D0B08D99D0B08C8
:1081200065C50B0891C50B08C1C50B08F1C50B0847
:1081300021C60B08D99D0B08FD3F0C08ED0E070862
:10814000010F0708190F0708D99D0B0825DC0B083C
:108150004DC60B087DC60B08ADC60B0815ED0B0808
:1081600029CE0B0851CE0B08D99D0B08D99D0B08C1
:1081700031400C08D99D0B08D99D0B08D99D0B08DF
:10818000D99D0B08D99D0B082DED0B0845ED0B086B
:10819000D99D0B08D99D0B08D99D0B08D99D0B08BB
:1081A000D99D0B08D99D0B08D99D0B08D99D0B08AB
:1081B000D99D0B08D99D0B08D99D0B0879CE0B08CA
:1081C000A1CE0B08D99D0B08D99D0B08D99D0B0892
:1081D000D99D0B08D99D0B08D99D0B08D99D0B087B
:1081E000D99D0B08D99D0B08D99D0B08D99D0B086B
:1081F000D99D0B08D99D0B08D99D0B08D99D0B085B
:10820000A9020108E13701088D200208952902081A
:10821000CD2B0208E12F020809330208713402084D
:10822000A16F02089D8E0208C5C80208F962030802
:10823000AD9E030865BE0308D5C0030835A4040835
:1082400069AB040845B1040839C90408E94B0508BD
:10825000B5790608897E0608FDCD0608A5DF060863
:1082600089F00608B9F00608310F0708E910070879
:10827000213607080942070879700708AD820A0805
:108280005D900A0865AA0A08E5B10A084DC60A0801
:1082900029C90A08C19C0B0800000000000000006A
:1082A000D0400B1CD1409C46203AD3401843524248
:1082B0006346934018437047D0400B1C1141203A4D
:1082C00003D49C46134118436346524293401843DB
:1082D000704700BF9140031C90409C46203A934059
:1082E000194352426346D3401943704781F000411D
:1082F00002E000BF83F0004330B54FEA41044FEA8B
:10830000430594EA050F08BF90EA020F1FBF54EA25
:10831000000C55EA020C7FEA645C7FEA655C00F0C1
:10832000E2804FEA5454D4EB5555B8BF6D420CDD92
:108330002C4480EA020281EA030382EA000083EA15
:10834000010180EA020281EA0303362D88BF30BDB5
:1083500011F0004F4FEA01314FF4801C4CEA11310B
:1083600002D0404261EB410113F0004F4FEA03336A
:108370004CEA133302D0524263EB430394EA050FF5
:1083800000F0A780A4F10104D5F1200E0DDB02FA64
:108390000EFC22FA05F2801841F1000103FA0EF2F8
:1083A000801843FA05F359410EE0A5F120050EF1BE
:1083B000200E012A03FA0EFC28BF4CF0020C43FAEF
:1083C00005F3C01851EBE37101F0004507D54FF0FC
:1083D000000EDCF1000C7EEB00006EEB0101B1F54C
:1083E000801F1BD3B1F5001F0CD349085FEA300092
:1083F0004FEA3C0C04F101044FEA445212F5800F9D
:1084000080F09A80BCF1004F08BF5FEA500C50F139
:10841000000041EB045141EA050130BD5FEA4C0C1C
:10842000404141EB010111F4801FA4F10104E9D1A5
:1084300091F0000F04BF01460020B1FA81F308BF9C
:108440002033A3F10B03B3F120020CDA0C3208DD68
:1084500002F1140CC2F10C0201FA0CF021FA02F143
:108460000CE002F11402D8BFC2F1200C01FA02F1B3
:1084700020FA0CFCDCBF41EA0C019040E41AA2BFD8
:1084800001EB0451294330BD6FEA04041F3C1CDAA0
:108490000C340EDC04F11404C4F1200220FA04F0C0
:1084A00001FA02F340EA030021FA04F345EA03016A
:1084B00030BDC4F10C04C4F1200220FA02F001FA2C
:1084C00004F340EA0300294630BD21FA04F02946AE
:1084D00030BD94F0000F83F4801306BF81F4801147
:1084E0000134013D4EE77FEA645C18BF7FEA655CBA
:1084F00029D094EA050F08BF90EA020F05D054EA8C
:10850000000C04BF1946104630BD91EA030F1EBF90
:108510000021002030BD5FEA545C05D14000494194
:1085200028BF41F0004130BD14F580043CBF01F587
:10853000801130BD01F0004545F0FE4141F470016D
:108540004FF0000030BD7FEA645C1ABF1946104648
:108550007FEA655C1CBF0B46024650EA013406BF49
:1085600052EA033591EA030F41F4002130BD00BF08
:1085700090F0000F04BF0021704730B54FF48064C5
:1085800004F132044FF000054FF0000150E700BF46
:1085900090F0000F04BF0021704730B54FF48064A5
:1085A00004F1320410F0004548BF40424FF0000192
:1085B0003EE700BF42004FEAE2014FEA31014FEAD5
:1085C00002701FBF12F07F4393F07F4F81F0605124
:1085D000704792F0000F14BF93F07F4F704730B593
:1085E0004FF4607401F0004521F0004120E700BF26
:1085F00050EA010208BF704730B54FF000050AE0AD
:1086000050EA010208BF704730B511F0004502D5AD
:10861000404261EB41014FF4806404F132045FEAAF
:10862000915C3FF4DCAE4FF003025FEADC0C18BF54
:1086300003325FEADC0C18BF033202EBDC02C2F14A
:10864000200300FA03FC20FA02F001FA03FE40EADC
:108650000E0021FA02F11444C1E600BF70B54FF0DC
:10866000FF0C4CF4E06C1CEA11541DBF1CEA1355BE
:1086700094EA0C0F95EA0C0F00F0DEF82C4481EA26
:10868000030621EA4C5123EA4C5350EA013518BF46
:1086900052EA033541F4801143F4801338D0A0FB33
:1086A00002CE4FF00005E1FB02E506F00042E0FBE0
:1086B00003E54FF00006E1FB03569CF0000F18BFE6
:1086C0004EF0010EA4F1FF04B6F5007F64F540748E
:1086D00004D25FEA4E0E6D4146EB060642EAC62121
:1086E00041EA55514FEAC52040EA5E504FEACE2E8E
:1086F000B4F1FD0C88BFBCF5E06F1ED8BEF1004F91
:1087000008BF5FEA500E50F1000041EB045170BD0C
:1087100006F0004646EA010140EA020081EA030150
:10872000B4EB5C04C2BFD4EB0C0541EA045170BD4C
:1087300041F480114FF0000E013C00F3AB8014F1C6
:10874000360FDEBF002001F0004170BDC4F100040F
:10875000203C35DA0C341BDC04F11404C4F1200590
:1087600000FA05F320FA04F001FA05F240EA0200EB
:1087700001F0004221F0004110EBD37021FA04F621
:1087800042EB06015EEA430E08BF20EAD37070BDDB
:10879000C4F10C04C4F1200500FA04F320FA05F03A
:1087A00001FA04F240EA020001F0004110EBD3703C
:1087B00041F100015EEA430E08BF20EAD37070BDAC
:1087C000C4F1200500FA05F24EEA020E20FA04F385
:1087D00001FA05F243EA020321FA04F001F0004134
:1087E00021FA04F220EA020000EBD3705EEA430EA5
:1087F00008BF20EAD37070BD94F0000F0FD101F0D4
:108800000046400041EB010111F4801F08BF013C0C
:10881000F7D041EA060195F0000F18BF704703F04A
:108820000046520043EB030313F4801F08BF013DD1
:10883000F7D043EA0603704794EA0C0F0CEA13558D
:1088400018BF95EA0C0F0CD050EA410618BF52EA47
:108850004306D1D181EA030101F000414FF000004D
:1088600070BD50EA410606BF1046194652EA43065B
:1088700019D094EA0C0F02D150EA013613D195EACF
:108880000C0F05D152EA03361CBF104619460AD117
:1088900081EA030101F0004141F0FE4141F4700121
:1088A0004FF0000070BD41F0FE4141F4780170BD11
:1088B00070B54FF0FF0C4CF4E06C1CEA11541DBF76
:1088C0001CEA135594EA0C0F95EA0C0F00F0A7F878
:1088D000A4EB050481EA030E52EA03354FEA0131A5
:1088E00000F088804FEA03334FF0805545EA1313B8
:1088F00043EA12634FEA022245EA111545EA106580
:108900004FEA00260EF000419D4208BF964244F116
:10891000FD0404F5407402D25B084FEA3202B61A35
:1089200065EB03055B084FEA32024FF480104FF409
:10893000002CB6EB020E75EB030E22BFB61A75467D
:1089400040EA0C005B084FEA3202B6EB020E75EB10
:10895000030E22BFB61A754640EA5C005B084FEA78
:108960003202B6EB020E75EB030E22BFB61A754645
:1089700040EA9C005B084FEA3202B6EB020E75EB50
:10898000030E22BFB61A754640EADC0055EA060E11
:1089900018D04FEA051545EA16754FEA06164FEA54
:1089A000C30343EA52734FEAC2025FEA1C1CC0D100
:1089B00011F4801F0BD141EA00014FF000004FF08D
:1089C000004CB6E711F4801F04BF01430020B4F14E
:1089D000FD0C88BFBCF5E06F3FF6AFAEB5EB030C06
:1089E00004BFB6EB020C5FEA500C50F1000041EB03
:1089F000045170BD0EF0004E4EEA113114EB5C04D0
:108A0000C2BFD4EB0C0541EA045170BD41F48011A2
:108A10004FF0000E013C90E645EA060E8DE60CEAAA
:108A2000135594EA0C0F08BF95EA0C0F3FF43BAFC7
:108A300094EA0C0F0AD150EA01347FF434AF95EA7E
:108A40000C0F7FF425AF104619462CE795EA0C0F62
:108A500006D152EA03353FF4FDAE1046194622E72F
:108A600050EA410618BF52EA43067FF4C5AE50EA09
:108A700041047FF40DAF52EA43057FF4EBAE12E7F9
:108A80004FF0FF3C06E000BF4FF0010C02E000BFDA
:108A90004FF0010C4DF804CD4FEA410C7FEA6C5CBD
:108AA0004FEA430C18BF7FEA6C5C1BD001B050EA60
:108AB000410C0CBF52EA430C91EA030F02BF90EA4B
:108AC000020F0020704710F1000F91EA030F58BF0A
:108AD000994208BF90422CBFD8176FEAE37040F06C
:108AE000010070474FEA410C7FEA6C5C02D150EA0A
:108AF000013C07D14FEA430C7FEA6C5CD6D152EAC5
:108B0000033CD3D05DF8040B704700BF8446104689
:108B100062468C461946634600E000BF01B5FFF788
:108B2000B7FF002848BF10F1000F01BD4DF808ED58
:108B3000FFF7F4FF0CBF012000205DF808FB00BF29
:108B40004DF808EDFFF7EAFF34BF012000205DF883
:108B500008FB00BF4DF808EDFFF7E0FF94BF0120D0
:108B600000205DF808FB00BF4DF808EDFFF7CEFFD1
:108B700094BF012000205DF808FB00BF4DF808ED10
:108B8000FFF7C4FF34BF012000205DF808FB00BFE1
:108B90004FEA410212F5001215D211D56FF4787325
:108BA000B3EB625212D94FEAC12343F0004343EAC8
:108BB000505311F0004F23FA02F018BF40427047A3
:108BC0004FF00000704750EA013005D111F000402D
:108BD00008BF6FF0004070474FF00000704700BFC3
:108BE0004A0011D212F5001211D20DD56FF478732C
:108BF000B3EB62520ED44FEAC12343F0004343EA81
:108C0000505323FA02F070474FF00000704750EACB
:108C1000013002D14FF0FF3070474FF00000704735
:108C20004FEA4102B2F1E04324BFB3F5001CDCF18E
:108C3000FE5C0DD901F0004C4FEAC0024CEA5070C6
:108C4000B2F1004F40EB830008BF20F001007047F5
:108C500011F0804F21D113F13872BCBF01F00040F8
:108C6000704741F480114FEA5252C2F11802C2F12A
:108C7000200C10FA0CF320FA02F018BF40F00100AB
:108C80004FEAC1234FEAD32303FA0CFC40EA0C005D
:108C900023FA02F34FEA4303CCE77FEA625307D19A
:108CA00050EA01331EBF4FF0FE4040F440007047D1
:108CB00001F0004040F0FE4040F40000704700BF6B
:108CC00080F0004002E000BF81F0004142001FBF81
:108CD0005FEA410392EA030F7FEA226C7FEA236C8A
:108CE0006AD04FEA1262D2EB1363C1BFD21841407F
:108CF00048404140B8BF5B42192B88BF704710F015
:108D0000004F40F4000020F07F4018BF404211F0B7
:108D1000004F41F4000121F07F4118BF494292EA1F
:108D2000030F3FD0A2F1010241FA03FC10EB0C004B
:108D3000C3F1200301FA03F100F0004302D54942D8
:108D400060EB4000B0F5000F13D3B0F1807F06D385
:108D500040084FEA310102F10102FE2A51D2B1F17D
:108D6000004F40EBC25008BF20F0010040EA030072
:108D70007047490040EB000010F4000FA2F101021F
:108D8000EDD1B0FA80FCACF1080CB2EB0C0200FAA9
:108D90000CF0AABF00EBC25052421843BCBFD040F7
:108DA0001843704792F0000F81F4000106BF80F471
:108DB00000000132013BB5E74FEA41037FEA226C34
:108DC00018BF7FEA236C21D092EA030F04D092F0FF
:108DD000000F08BF0846704790EA010F1CBF002033
:108DE000704712F07F4F04D1400028BF40F0004090
:108DF000704712F100723CBF00F50000704700F0B0
:108E0000004343F0FE4040F4000070477FEA2262D6
:108E100016BF08467FEA23630146420206BF5FEAA7
:108E2000412390EA010F40F4800070474FF00003A7
:108E300004E000BF10F0004348BF40425FEA000C6E
:108E400008BF704743F0964301464FF000001CE016
:108E500050EA010208BF70474FF000030AE000BF6C
:108E600050EA010208BF704711F0004302D54042AA
:108E700061EB41015FEA010C02BF8446014600201C
:108E800043F0B64308BFA3F18053A3F50003BCFA37
:108E90008CF2083AA3EBC25310DB01FA02FC6344E4
:108EA00000FA02FCC2F12002BCF1004F20FA02F2EB
:108EB00043EB020008BF20F00100704702F12002DE
:108EC00001FA02FCC2F1200250EA4C0021FA02F23F
:108ED00043EB020008BF20EADC7070477BB972B92F
:108EE0000029BEBF00204FF0004106E008BF002867
:108EF0001CBF6FF000414FF0FF3000F08DB882B022
:108F0000EC462DE9005000F057F8DDF804E002B01F
:108F10000CBC704753B94AB9002908BF00281CBFD0
:108F20004FF0FF314FF0FF3000F076B882B0EC46E2
:108F30002DE9005000F058F8DDF804E002B00CBC58
:108F4000704700BF430803F05533C31A980800F078
:108F5000333003F03333184400EB101000F00F30BF
:108F600000EB002000EB0040000E7047D0B5FFF78B
:108F700021FB00220E4B06460F46FFF76FFBFFF763
:108F80002FFE0446FFF7F4FA00220A4BFFF766FBB8
:108F900002460B4630463946FFF7ACF9FFF720FE94
:108FA0002346002242EA000210461946D0BD00BF07
:108FB0000000F03D0000F0412DE9F041069C15460F
:108FC00006460F46984600F029F805FB01F300FB22
:108FD0000838A5FB0023B21A434467EB0303C4E936
:108FE0000023BDE8F08100BF2DE9F041069C9046CA
:108FF00006460F461D4600F05FF900FB05F5A0FB95
:10900000082308FB0155B21A2B4467EB0303C4E99C
:109010000023BDE8F08100BF704700BF00292DE9A3
:10902000F043C0F2A6800026002BC0F29C80884648
:1090300094469E46154604460F46002B3DD18A4273
:1090400059D9B2FA82F33BB1C3F120029F4020FA12
:1090500002F29D4017439C40290C220CB7FBF1FE05
:10906000A8B201FB1E7742EA074700FB0EF3BB42A2
:109070000AD97F190EF1FF3280F00581BB4240F220
:109080000281AEF1020E2F44FF1AA4B2B7FBF1F336
:1090900001FB137744EA074700FB03F0B84208D905
:1090A0007F1903F1FF3280F0F080B84240F2ED808A
:1090B000023B43EA0E43002203E08B420FD9002219
:1090C0001346341C18BF012460424FF0000565EBC5
:1090D00045015840514000196941BDE8F083B3FA99
:1090E00083F2002A40F086808B4202D3844500F24E
:1090F000DB800123E5E712B90123B3FBF2F5B5FAF2
:1091000085F000283BD1781B4FEA154E1FFA85FCED
:109110000122B0FBFEF8210C0EFB180741EA0747BD
:109120000CFB08F3BB4207D97F1908F1FF3102D2CB
:10913000BB4200F2BD808846FF1AA4B2B7FBFEF323
:109140000EFB137744EA07470CFB03FCBC4507D929
:109150007F1903F1FF3102D2BC4500F2A7800B4614
:1091600043EA0843ADE752426FEA060663EB430366
:109170005DE7404261EB41014FF0FF3654E7C0F13B
:10918000200224FA02F107FA00F385404FEA154E57
:10919000D7401943B7FBFEF20B0C0EFB12771FFAF8
:1091A00085FC43EA07430CFB02F79F4204FA00F4F4
:1091B00007D95B1902F1FF3074D29F4272D9023A8B
:1091C0002B44DF1B89B2B7FBFEF80EFB187341EA94
:1091D00003430CFB08F79F4208D95B1908F1FF31E4
:1091E0005CD29F425AD9A8F102082B44D81B48EA06
:1091F00002428EE7C2F120032CFA03F10EFA02FEBE
:1092000020FA03F741EA0E0E08FA02F028FA03F1F9
:109210004FEA1E453843B1FBF5F8030C05FB181166
:109220001FFA8EF743EA014107FB08F38B420CFA61
:1092300002FC09D911EB0E0108F1FF3930D28B4243
:109240002ED9A8F102087144C91A80B2B1FBF5F316
:1092500005FB131140EA014107FB03F78F4208D9D0
:1092600011EB0E0103F1FF3016D28F4214D9023BED
:10927000714443EA0843C91BA3FB0C89494509D340
:1092800005D000221DE79646FEE6134611E79440FE
:109290004445F6D2013BF4E70346EAE78846A5E7F2
:1092A000C846D1E702468CE713460AE7023B57E778
:1092B000A8F102082F443FE72DE9F041002B44D1EB
:1092C0008A42154604464FD9B2FA82F70E464FB18C
:1092D000C7F12003B94020FA03F602FA07F50E435E
:1092E00000FA07F44FEA154E230CB6FBFEF0AFB2BE
:1092F0000EFB106143EA014307FB00F1994209D9D3
:109300005B1900F1FF3280F0EC80994240F2E98075
:1093100002382B445A1AA4B2B2FBFEF30EFB1322FE
:1093200044EA024207FB03F7974208D9521903F1B6
:10933000FF3180F0D880974240F2D580023B43EA6B
:10934000004000263146BDE8F0818B4247D8B3FA91
:1093500083F6002E48D18B4202D3824200F2CD80A8
:1093600001203146BDE8F08112B90125B5FBF2F5C7
:10937000B5FA85F8B8F1000F77D14A1B4FEA154EC0
:10938000AFB20126B2FBFEF0230C0EFB102143EA24
:10939000014107FB00F38B4207D9491900F1FF3265
:1093A00002D28B4200F2BA801046C91AA4B2B1FBB5
:1093B000FEF30EFB131144EA014407FB03F7A74237
:1093C00008D9641903F1FF3280F08F80A74240F280
:1093D0008C80023B43EA00403146BDE8F081002624
:1093E00030463146BDE8F081C6F1200422FA04F58A
:1093F000B3402B4320FA04FC01FA06F721FA04F5E6
:109400004FEA134E4CEA0707B5FBFEF8390C0EFB8A
:1094100018551FFA83FC41EA05450CFB08F1A942E7
:1094200002FA06F204D9ED1808F1FF3467D3A0461A
:109430006D1ABFB2B5FBFEF40EFB145547EA0541A9
:109440000CFB04FC8C4504D9C91804F1FF355CD32E
:109450002C4644EA0844CCEB0101A4FB02239942C8
:1094600048D344D0204600266CE7C8F1200401FA16
:1094700008F305FA08F520FA04F7E1404FEA154E23
:109480001F43B1FBFEF63A0C0EFB16111FFA85FCCA
:1094900042EA01430CFB06F29A4200FA08F407D9AB
:1094A0005B1906F1FF3137D29A4235D9023E2B447F
:1094B0009B1ABFB2B3FBFEF00EFB103347EA034327
:1094C0000CFB00F1994207D95B1900F1FF3221D260
:1094D00099421FD902382B445A1A40EA0646674679
:1094E00050E7104616E70B4629E7134672E7B040EF
:1094F0009042B7D2601E002624E7304622E7A942F8
:1095000095D9A8F102081D4492E78C45A0D9023CE8
:1095100019449EE71046DFE70E46C9E702382944A2
:1095200043E700BF72B6374880F3098836484EF6E5
:109530000851CEF20001086040F20000CCF20000B9
:109540004EF63471CEF200010860BFF34F8FBFF3C7
:109550006F8F40F20000C0F2F0004EF68851CEF25C
:1095600000010860BFF34F8FBFF36F8F4FF0000013
:10957000E1EE100A4EF63C71CEF2000108600620C2
:1095800080F31488BFF36F8FB0F0D2FBB8F06CFD9E
:109590001E481F491F4A91423CBF41F8040BFAE79D
:1095A0001D49184A91423CBF41F8040BFAE71B4998
:1095B0001B4A1C4B9A423EBF51F8040B42F8040B65
:1095C000F8E700201849194A91423CBF41F8040BC2
:1095D000FAE7B0F0E7FBB8F049FD154C154DAC4289
:1095E00003DA54F8041B8847F9E702F0FDF9124C3E
:1095F000124DAC4203DA54F8041B8847F9E7B0F087
:10960000CFBB0000000802200080000855555555CA
:10961000000002200004022000040220B81A0F08F3
:109620000008022054150220581502202022032091
:10963000008200089882000898820008988200083A
:109640002DE9F04F2DED108AC1F80CD0D0F80CD0D8
:10965000BDEC108ABDE8F08FB1F06AF8002383F307
:1096600011882846A0470020B0F046FFB1F05AF814
:10967000B0F066FEB1F05CF800DFFEE703685A0068
:109680004CBF43F0004323F000431844704700BF31
:109690002DE9F04F83B099B34B1E17460546019351
:1096A0009846002606EB080404EBD47464104FEAD5
:1096B000C40A05EB0A0B5846FFF7E0FF019B814601
:1096C000A3420AF1080028440ED0FFF7D7FFB9459E
:1096D00000F1FF3004D9B4420CD004F1FF38E1E7C7
:1096E000B84203D2661CDDE7B945F4D8584603B04A
:1096F000BDE8F08F4FF0000B584603B0BDE8F08F87
:109700008B46584603B0BDE8F08F00BF012807D054
:10971000022807D0044B00280CBF184600207047D1
:109720000248704702487047199E00081D9E0008B5
:10973000219E000830B5244B83B004468D1E7BB3B8
:10974000284601A9AFF3008020B301992A46FFF70C
:109750009FFF0546F0B1FFF791FF6B68A064012BF6
:1097600012D0002B05F1040020DBFFF787FF002358
:10977000E06423650368002B1CDBFFF77FFF0023F9
:109780002061184603B030BD00232361052318462D
:1097900003B030BD002323610923184603B030BD58
:1097A0000A490B48091AC9100191CFE70123E06467
:1097B0002365DFE7C3F30360FFF7A8FF00282061FC
:1097C0000CBF09230023DCE700000000B81A0F08D3
:1097D000F0190F080368DA0710B5044606D49B0792
:1097E00000F1480009D500F085FC2368590709D528
:1097F0001A070ED5DB0613D510BD00F073FC2368E5
:109800005907F5D404F1D00000F07CFC23681A0756
:10981000F0D404F5A87000F07DFC2368DB06EBD4DF
:1098200004F5E870BDE8104000F0B8BC03680BB167
:10983000184470471846704709207047704700BFAA
:1098400070B504460D4608E02B6C63610120236966
:1098500021462A469847082808D12046296CFFF758
:1098600069FF06460028EFD0BDF0E2FE0728FBD1D5
:109870003046296CFFF7E2FF281D00F027FC00BFEF
:109880002DE9F0470C1D064617460FCCADF5727D4D
:1098900003AD0FC50FCC0FC50FCC0FC594E80F005B
:1098A00002AC4FF0000ED6F80C80D6F8189085E880
:1098B0000F003046216CC4F800E0FFF73BFF002F9B
:1098C00005460CBF09270A277DB1A36B47F010019D
:1098D0008DE810020120636432463346C04778BBEE
:1098E00028460DF5727DBDE8F087236C7361214633
:1098F0004FF4F0727AA800F07DFE336931467AAAFF
:1099000038469847889B82468DE810023946636442
:10991000012032463346C04790B920467AA94FF419
:10992000F07200F067FEBAF1080F06D13046216CE4
:10993000FFF700FF09270546C6E7BAF1070F04D075
:1099400009200DF5727DBDE8F0872846216CFFF7F0
:1099500075FF03A800F0BAFB406C7047F0B5CB6B05
:109960000B640E1D0F4604460FCEF9B001AD0FC5B6
:109970000FCE0FC50FCE0FC596E80F004FF0FF3684
:1099800085E80F00009606E0236921466A4698475D
:109990000828054608D120461099FFF7CBFE00287D
:1099A000F2D0092079B0F0BD6846FFF713FF062D0D
:1099B000F7D120463946FFF743FF00BF30B4DD6BD7
:1099C000C160826119461D64002230BC58E700BFA7
:1099D00070B5C66843690B6404460D4626B1012282
:1099E000FFF74EFFBDF024FE0369214602202A4600
:1099F0009847072807D0082803D120462946FFF7B3
:109A00001FFFBDF015FE3046296CFFF717FF281D1C
:109A100000F05CFBC2681AB1CA6B0A6400222FE72F
:109A20009CE700BF704700BF836813B10146012067
:109A30001847704700B5042907D8DFE801F003098B
:109A4000060909000BB90F2A05D902205DF804FBAD
:109A500001205DF804FB00EB820218465368019A6E
:109A600013605DF804FB00BF00B585B00A4603AB88
:109A7000002100930B46FFF7DDFF039805B05DF86A
:109A800004FB00BF00B5042907D8DFE801F0030993
:109A9000060909000BB90F2A05D902205DF804FB5D
:109AA00001205DF804FB019900EB82020968516016
:109AB00018465DF804FB00BF10B584B004AB0C463B
:109AC00043F8042D0021009322460B46FFF7DAFFEE
:109AD00004B010BDF0B5D36B1364151D07460E46D8
:109AE0000FCDADF50F7D17AC0FC40FCD0FC40FCD4B
:109AF0000FC495E80F004FF0FF3584E80F0016956E
:109B000010E016A8FFF7D8FF314616A8B8476946F7
:109B100016AA78B9049B08209847052804460AD05D
:109B2000092807D026996846FFF704FE6A460C21EB
:109B30000028E6D0092416A8FFF74CFE20460DF5B4
:109B40000F7DF0BD2DE9F04F0D46C96C8BB00C1D9B
:109B5000096807919046089400F003091E46002BFF
:109B600064D10902032307918DF825608DF8243014
:109B70002B6DB9F1020F08BFAC6B13F0010343D199
:109B800000F00800C2B2039201932768002F3DD075
:109B9000022E47D02788B4F802A00434AB6C2AF018
:109BA000010B40460F219B44FFF75EFF834537D8EA
:109BB00027F001039B4458452CBF002001200AF0E8
:109BC000010A07F0010747EA4A0ABAF1010F43D038
:109BD0003AD3BAF1020F1FD1236823F00042029258
:109BE000B9F1000F7BD138B1039A002A00F08380CD
:109BF000029A002A00F0A680002B7ADB029B03F178
:109C0000010A04EB8A04C0E700230193022E40DD21
:109C1000FFF712FE002842D009200BB0BDE8F08FFC
:109C20000020CCE7D4F804A00834B7E7022B9FDC6F
:109C30000B0CDFB2090402228DF8253004EB8704F7
:109C400007918DF8242093E7B9F1000F02D0002886
:109C500040F0AD80043498E7B9F1000F26D1B0B1DF
:109C600094E80C00D70F9A1CD6D005F158020133A6
:109C7000069200F09280201DFFF7D8FD3A4601467B
:109C800006AB2846AFF30080002840F0B5800834CA
:109C90007BE7404607A900F01BFB0028BCD1019BD5
:109CA000002B59D108200BB0BDE8F08F40460D21A4
:109CB0002F6AFFF7D9FE8742E9D1AB6A9C42E6D111
:109CC0002046FFF7DBFC0F2102464046FFF7F4FE7B
:109CD00040462A460021FFF7EFFE07209DE7404659
:109CE0000D212F6AFFF7C0FE874245D02368002B65
:109CF00084DA043482E7029B23B305F15803059606
:109D000004F1040A039FDDF808B0CDF810901E4658
:109D100002E0D9454F4615D050460696FFF786FD1E
:109D20000022014606AB2846AFF3008007F1010987
:109D30000AF1040A0028ECD0029BDDF81090059E81
:109D40009F42D3D140460D21FFF78EFE069B28622D
:109D5000AC626B62062060E70F214046FFF784FE8D
:109D60000E2102464046FFF7A7FE40460F21294A32
:109D7000FFF7A2FE072050E7AB6A9C42B6D104224F
:109D80000027A3180299A962EF622A636B63236814
:109D9000BB421FDB0123019330E740460D21FFF753
:109DA00063FE2862069B6B62AC62062035E72046A4
:109DB000FFF764FC04340646AC632846AFF300802A
:109DC00000283FF429AF404632460F21FFF774FECA
:109DD000072022E70846013004EB8000FFF74EFC25
:109DE0000F2102464046FFF767FE404639462A46A5
:109DF000FFF762FE072010E707460D214046FFF7F8
:109E000033FE022F2862CDD12B46069A43F82C2F21
:109E10006B62C9E700000000002393E6012391E68E
:109E200002238FE6F0B50546C5B004290CD8DFE85B
:109E300001F056030B300E00012B4FEA124496B28C
:109E400065D0052B00F08480022045B0F0BD002BCA
:109E5000FAD1102AF8D82B68DC0600F1EB8022AE8C
:109E60003046019200F0A4F9A86B019A0023012466
:109E700004FA03F1114203D0016846F823100430BC
:109E80000133042BF4D1A863304600F087F9002099
:109E9000DBE7032BD8D1140C97B23B19102BD3D886
:109EA0002B681E0700F1E68022AE30467F0000F0EE
:109EB00053F906EBC4027B1EAC6B57B1043A214642
:109EC00051F8040B42F8040F013B581CF8D104EB85
:109ED00087043046AC6300F01DF90020B5E7002B85
:109EE000B2D1AC6B97B2281D012606FA03F13942B4
:109EF00003F1010302D0216801600434102B00F14A
:109F00000400F2D112F4005020D1AC639DE7321965
:109F1000102A99D80F2C97D82968C8074FF0000746
:109F200055D422A8019300F0E1F8019B19E00846FE
:109F30003746012B00F098800F2CA86302D822A886
:109F400000F0D8F817B102A800F0DCF800207CE798
:109F50003719202F3FF678AF0F2C30D93746002E17
:109F600045D1A96B3246002EE1D0002744A84FEA24
:109F7000420C00EBC4000CF1FF328C388E465EF8C8
:109F8000046B40F8046F013A561CF8D101EB8C00C9
:109F9000002FCED0102C224644A938BF102201EB4E
:109FA000C202A2F5C47201467800043A01EB8000B7
:109FB00051F8046B42F8046F8142F9D1B9E7102FD0
:109FC00042D92A68D007A7F11007114610D521F011
:109FD0000102052B2A60019328465BD021F0030182
:109FE00040F8481B00F082F8019B002F4AD02A68F5
:109FF00051075BD4012B63D00F2C04D822A8019306
:10A0000000F07CF8019B002FABD002A8019300F078
:10A010007DF8019BA96BC4F11002002AA6DC102C6C
:10A02000224644A838BF102200EBC202A2F5C47237
:10A030007800BAE723F010032B6005F5E870019271
:10A0400000F0B6F8019A0AE72968C8071DD521F083
:10A050000102284642F0020240F8482B01930027F3
:10A0600000F04CF8019BC9E70430A86322A800F077
:10A0700039F86BE723F008032B6005F5A87000F0B2
:10A080006BF811E7012B3FF44CAF0F2C98BF002762
:10A09000B4D966E742F0020240F8482B00F02EF8EF
:10A0A000019B002FAAD02A685107A5D5284622F087
:10A0B000040240F8D02B019300F028F8019B99E7A7
:10A0C00022A8019300F012F8019BA3E700F13401EC
:10A0D00091E838009C46A6464CF8045D90E8FF0FD6
:10A0E000E54600BD90EC210B704700BF80EC210BD2
:10A0F000704700BF90EC200B704700BF80EC200B36
:10A10000704700BFD0EC200B704700BFC0EC200BA5
:10A11000704700BFF0EC0201F0EC0211F0EC0221FC
:10A12000F0EC0231F0EC0241F0EC0251F0EC026193
:10A13000F0EC0271F0EC0281F0EC0291F0EC02A183
:10A14000F0EC02B1F0EC02C1F0EC02D1F0EC02E173
:10A15000F0EC02F1704700BFE0EC0201E0EC02110C
:10A16000E0EC0221E0EC0231E0EC0241E0EC0251D3
:10A17000E0EC0261E0EC0271E0EC0281E0EC0291C3
:10A18000E0EC02A1E0EC02B1E0EC02C1E0EC02D1B3
:10A19000E0EC02E1E0EC02F1704700BFB0FC0181AD
:10A1A000B0FC0191B0FC01A1B0FC01B1704700BF4F
:10A1B000A0FC0181A0FC0191A0FC01A1A0FC01B1C7
:10A1C000704700BFEC4600B52DE900502DE9FF1F98
:10A1D0004FF000032DE90C0001A9FFF7BFFBDDF8EC
:10A1E00040E012B0704700BFEC4600B52DE90050CA
:10A1F0002DE9FF1F4FF000032DE90C0001A9FFF727
:10A20000E7FBDDF840E012B0704700BFEC4600B558
:10A210002DE900502DE9FF1F4FF000032DE90C0040
:10A2200001A9FFF7F7FBDDF840E012B0704700BF6F
:10A23000EC4600B52DE900502DE9FF1F4FF000035B
:10A240002DE90C0001ABFFF7B9FBDDF840E012B0DF
:10A25000704700BFEC4600B52DE900502DE9FF1F07
:10A260004FF000032DE90C0001AAFFF733FCDDF8E5
:10A2700040E012B0704700BF037A1BB9437A43B97C
:10A28000B02070475A1E036802721A020260180E4C
:10A2900070474268013B10B4437213680321141DD8
:10A2A00001721A02446002605DF8044B180E704798
:10A2B00000B585B003AB002100930C220B46FFF7DD
:10A2C000B9FB039805B05DF804FB00BFF0E700BFE1
:10A2D0002DE9F043064685B00D464FF000082846AC
:10A2E000FFF7CAFFB028044600F0B58020F07F01D8
:10A2F00011F0FF0120D000F0F003802B7AD0902BDA
:10A3000036D0A02B49D0B02B5CD0C02B00F0898078
:10A3100000F0F803D02B0BD100F00702013242F419
:10A320000022304601210523FFF77CFD0028D6D00E
:10A33000092005B0BDE8F0830DF10C090B4687003C
:10A34000CDF8009030460D22FFF774FBFFB2039B5F
:10A35000CDF80090043760064FF000014CBFDF1BC2
:10A36000FF1830460B460D220397FFF78BFBB6E72D
:10A3700000F00D030D2BDBD003AF002100F00F0226
:10A380000B4600973046FFF755FB002100970B4620
:10A3900030460D22FFF776FBA1E7C34303F0070326
:10A3A0004FF47F621A41010702F47F624FF000010F
:10A3B00048BF42F480420B463046FFF733FD002889
:10A3C000B6D18CE7B1284CD0B2285DD0B32800F0CC
:10A3D0008A8000F0FC03B42BAAD000F007020132FF
:10A3E000012142F400220B463046FFF71BFD0028F6
:10A3F0009ED174E72846FFF73FFF24022043B0F5C3
:10A40000004F95D004010021A2B20B463046FFF761
:10A4100009FD00288CD114F4004F18BF4FF001083B
:10A420005DE7C62872D0C7287AD000F0F803C02BA9
:10A4300000F08980C82800F0A580C9287FF478AF93
:10A440002846FFF719FF00F00F02013200F0F0007C
:10A4500042EA003265E7B8F1000F00F08280002088
:10A4600067E72846FFF708FF024600283FF460AF81
:10A4700010F0F0017FF45CAF30460B46FFF7D2FCE2
:10A4800000287FF455AF2AE700210DF10C090D22B9
:10A490000B46CDF800903046FFF7CCFA2846FFF780
:10A4A000EBFE02064FF002040CD5039B00F07F0088
:10A4B000A040034428460393FFF7DEFE030604F1A1
:10A4C0000704F2D4039BCDF8009000F07F00A04079
:10A4D00003F5017300211C180D220B46304603942E
:10A4E000FFF7D0FAFBE62846FFF7C6FE00F00F02A2
:10A4F000013200F0F000012142EA00320B46304602
:10A50000FFF790FC00287FF413AFE8E62846FFF73A
:10A51000B3FE00F00F02013200F0F0000321EBE780
:10A520002846FFF7A9FE024600283FF401AF10F0CD
:10A53000F0037FF4FDAE30460421FFF773FC0028E2
:10A540007FF4F6AECBE600F00F020132032142F4B5
:10A5500020220B463046FFF765FC00287FF4E8AE6A
:10A56000BDE603AC41460E22434600943046FFF759
:10A5700061FA0094304641460F224346FFF782FAC3
:10A580004046D6E62846FFF777FE00F0F00200F0DE
:10A590000F031032013343EA0232C2E610B5C36C36
:10A5A00084B05A6803208DF80C00DC798DF80D40DA
:10A5B00012020833084601A901920293FFF788FEB0
:10A5C00004B010BD08B5FFF781FE806C08BD00BF68
:10A5D00008B5FFF77BFEC36CD87903EB8000083029
:10A5E00008BD00BF08B5BDF023F800BF08B5BDF039
:10A5F0001FF800BF844641EA000313F003036DD146
:10A60000403A41D351F8043B40F8043B51F8043B35
:10A6100040F8043B51F8043B40F8043B51F8043B3C
:10A6200040F8043B51F8043B40F8043B51F8043B2C
:10A6300040F8043B51F8043B40F8043B51F8043B1C
:10A6400040F8043B51F8043B40F8043B51F8043B0C
:10A6500040F8043B51F8043B40F8043B51F8043BFC
:10A6600040F8043B51F8043B40F8043B51F8043BEC
:10A6700040F8043B51F8043B40F8043B51F8043BDC
:10A6800040F8043B403ABDD2303211D351F8043B7C
:10A6900040F8043B51F8043B40F8043B51F8043BBC
:10A6A00040F8043B51F8043B40F8043B103AEDD22B
:10A6B0000C3205D351F8043B40F8043B043AF9D27C
:10A6C000043208D0D2071CBF11F8013B00F8013B4F
:10A6D00001D30B8803806046704700BF082A13D35C
:10A6E0008B078DD010F003038AD0C3F10403D21A74
:10A6F000DB071CBF11F8013B00F8013B80D331F8A8
:10A70000023B20F8023B7BE7043AD9D3013A11F827
:10A71000013B00F8013BF9D20B7803704B78437092
:10A720008B78837060467047A2EB0300704700BFD0
:10A7300002780B78012A28BF9A42F5D16DE90445C9
:10A7400040EA0104CDE902676FF0000C4FEA447261
:10A7500012B380EA010414F0070F6AD100F0070475
:10A7600020F0070004F0030521F007014FEAC505BA
:10A77000F0E8042314F0040FF1E804670CFA05F480
:10A7800062EA040266EA04060AD063EA0403624647
:10A7900067EA0407664603E0F0E80423F1E804678B
:10A7A00082FA4CF582EA0604A4FA8CF46CBB83FAB4
:10A7B0004CF583EA0705A5FA8CF595B950E9022313
:10A7C00051E9026782FA4CF582EA0604A4FA8CF495
:10A7D00083FA4CF583EA0705A5FA8CF52543DBD00F
:10A7E0009CB92DBAB5FA85F424F0070427FA04F1D0
:10A7F000DDE9026723FA04F303F0FF0001F0FF0133
:10A80000FDE80445A0EB0100704724BAB4FA84F4D3
:10A8100024F0070426FA04F1DDE9026722FA04F2C3
:10A8200002F0FF0001F0FF01FDE80445A0EB01008C
:10A83000704714F0030F3CD110F0030428D150F8F6
:10A84000082B51F8083B82FA4CF582EA0305A5FA79
:10A850008CF55DB950F8042C51F8043C82FA4CF5A3
:10A8600082EA0305A5FA8CF5002DE8D02DBAB5FAD9
:10A8700085F424F0070423FA04F122FA04F202F02A
:10A88000FF0001F0FF01FDE80445A0EB0100704767
:10A890004FEAC40420F0030050F8082B21F0030114
:10A8A00051F8083B0CFA04F462EA040263EA040378
:10A8B000C9E710F003041AD0A1EB040120F0030053
:10A8C000E40750F8042B06D00FD28B785FFAA2F47D
:10A8D000E41A06D12BB1CB785FFAB2F4E41A00D1B6
:10A8E0001BB920465DF8104B704701F1040150F888
:10A8F000042BCC0721F0030151F8043B48D824D2A3
:10A9000022F07F4482FA4CF594EA1325A5FA8CF5DF
:10A910000AD165B951F8043B84EA0204B4EB036F31
:10A920000ED150F8042BEBE74FEA132355E035F036
:10A930007F454DD10878FDE80445C0F1000070471F
:10A940004FEA126203F0FF0347E002EA1C4482FA76
:10A950004CF594EA1345A5FA8CF50AD165B951F87E
:10A96000043B84EA0204B4EB034F0CD150F8042BEF
:10A97000EBE74FEA134330E015EA1C4528D10B887A
:10A980004FEA124229E04FEA124203EA1C4324E054
:10A9900002F0FF0482FA4CF594EA1365A5FA8CF5EF
:10A9A0000AD165B951F8043B84EA0204B4EB032FE1
:10A9B00009D150F8042BEBE74FEA13630DE015F0D3
:10A9C000FF0F05D10B684FEA122223F07F4304E00A
:10A9D0004FF00000FDE80445704712BA1BBA82FA36
:10A9E0004CF482EA0304A4FA8CF5B5FA85F402FA71
:10A9F00004F203FA04F34FEA1260FDE80445A0EB09
:10AA0000136070472DE9F34107460E4650F040F9B8
:10AA10003146044638464FF0E7FE504B93ED1F7A1F
:10AA2000D3ED1E7AB4EEE77A2040F1EE10FAC4B20C
:10AA3000984603D593F97430032B6BD1B8F91A30CB
:10AA4000B3F5967F0ADA454B5B8BADF8003038469C
:10AA500000213246424B4FF017FD0024B8F91C305C
:10AA6000B3F5967F0ADA3D4B9B8BADF80030384644
:10AA7000002132463B4B4FF007FD0024B8F91E3051
:10AA800013F5967F0ADD354BDB8BADF80030384689
:10AA900000213246344B4FF0F7FC0024D8F8480927
:10AAA0002E4D40F045FE50B195F96C303BB1D5F8D4
:10AAB0004839B5F96E20B3F908309A4232DB44F2D6
:10AAC0009022264B18F8022052B1B3F9B4281AB9D3
:10AAD000B3F8B228A3F8B428B8F8B438632B29D94E
:10AAE00042F6C43318F803300A2B05D142F6D0736E
:10AAF0001A4AD35A012B25D942F6D03318F803301D
:10AB00005B0727D5384600213246184B4FF0BCFC76
:10AB100000241FE0384600213246154B4FF0B4FCAC
:10AB200000248BE7384600213246124B4FF0ACFC34
:10AB30000024C4E73846002132460F4B4FF0A4FCF6
:10AB40000024CDE73846002132460C4B4FF09CFCE8
:10AB50000024D1E7204602B0BDE8F081A81502200C
:10AB6000ACC60C08C7C60C08E4C60C0801C70C0824
:10AB700016C70C0839C70C085FC70C0886C70C0835
:10AB8000F7B506460F464FF04DFF0446E0B1F38897
:10AB900003F01103C3B114F0DDFC0368D3F8B03047
:10ABA0009847054680B914F0D5FC03685B6A98475E
:10ABB000074B002808BF18460090102130463A463F
:10ABC000044B4FF061FC2C46204603B0F0BD00BFA3
:10ABD00098C70C08FC180D084CF046BB59F09CBFF8
:10ABE00048F0C0BB06F0FEBA24F01EBA33F052BEE5
:10ABF00009F0CCB832F0C4BB09F01ABF0EF0F6BDB4
:10AC000004F0D4BA32F03EB850F01CBC42F0C2BEE0
:10AC10000DF096BB0EF0D8BE0DF0B4BB0DF084BBAA
:10AC200048F0F8BB0DF042BB0EF0AEBF16F0ACBE64
:10AC300017F058BD08F026BB02F0D0BD02F0D4BD1D
:10AC400005F0CEBE0DF0C4BB09F01ABD02F0D8BDB0
:10AC500008F024B90EF0C8BC01F0CEBF0EF066BFFC
:10AC60000DF054BA10B5044630F03EFE04F52E50F7
:10AC70002C3042F0E1FC20460FF0CEFA04F67800CA
:10AC8000034932220823BDE8104031F017BE00BF4F
:10AC9000ECC70C0838B500F678050446284631F0B4
:10ACA0004BFFD5ED107A9FED0E7AF0EEE77AF4EED9
:10ACB000C77AF1EE10FA41BFB4F9B23807EE903A14
:10ACC000F8EEE77AB7EE007A48BFC7EE277A04F5C8
:10ACD000824448BFC5ED107A2B6CA36038BD00BF1D
:10ACE0000000003490F8B43023B190F8D500C0F3E0
:10ACF000400070471846704770B50E4B06461D68F9
:10AD000000F5834020306C6C4FF09AFB40B16C6CC6
:10AD1000236820465B69984710F1FF3018BF012077
:10AD200020716B6C06F69C101979BDE8704033F009
:10AD300005BC00BF4059022010B542F69C73044682
:10AD4000C35CDB0705D542F6FC23C05803681B68CB
:10AD5000984704F583445C3420460BF043FB18B954
:10AD60002046FFF7BFFF20B12046BDE810400CF0A1
:10AD7000F5BE10BDFFF7E0BF90F9B2301BB100F691
:10AD8000A4501AF025BC7047FFF7F6BF10B502219A
:10AD900004460FF007F920B1204601210FF002F917
:10ADA000B8B1204602210FF0FDF820B120468021E5
:10ADB0000FF0F8F888B1204602210FF0F3F888B1BF
:10ADC00004F5E25104F69C100831BDE8104038F05B
:10ADD00093BD204604F016F9E3E704F69C1035F025
:10ADE000A9FCE8E710BD0000FFF7D0BF10B51021A7
:10ADF00004460FF0D7F810B1204604F0F7FB2046C8
:10AE000020210FF0CFF810B1204604F003FA2046BD
:10AE10004FF400510FF0C6F810B1204604F0A2FB29
:10AE2000204680210FF0BEF828B104F69C10BDE842
:10AE3000104035F071BD10BDFFF7D8BF70B542F6B8
:10AE4000D8330446C55808F0C3FC42F6E433024642
:10AE500004F580402946E3584830BDE870404DF085
:10AE60004BBD0000FFF7EABF90F9B2305BB190F83C
:10AE7000F23D43B1044B1B685B6C1B791BB900F6B8
:10AE8000A4501AF007BC704740590220FFF7ECBFEE
:10AE900038B5044600F537500C3090F824110129DC
:10AEA00059D8142303FB010393F91130002B52D01E
:10AEB00094F8B43B6C2203F003035A43A51895F8A9
:10AEC000615A022D47D904F6F8152A4492ED207AEA
:10AED000F1EE007AB4EEE77AF1EE10FA3BD47C2280
:10AEE00002FB0101B4F90A2091ED0C6A07EE902AE9
:10AEF000F8EEE76AB4EEE66AF1EE10FA06D5F8EE7F
:10AF0000677AB4EEE77AF1EE10FA24D441F65842AB
:10AF1000D4F8F019A258002AB8BF52428A421ADC6B
:10AF200041F65C42B4F91C10A2588A4213DCD4F8F2
:10AF3000F4198A4200DA38BD6C2202FB03559035C1
:10AF40002946B4F90C2016F0EDF820462946BDE854
:10AF5000384002F04FBC38BDFFF79ABFF8B590F803
:10AF6000B41B3D4A01F003010C2303FB010304461B
:10AF7000D3F8400A1368984206D06C2303FB0143C0
:10AF800093F8613A022B10D86C2303FB014191F82E
:10AF9000613A022B04D842F6E833E25C002A58D129
:10AFA0002046BDE8F84009F0E5BC106042F6E83202
:10AFB000A35C012B01D9013B09E03BD144F2C8035A
:10AFC000E35833B944F2CC03E35813B90523A3542F
:10AFD00030E06C2707FB0141204601F66A2106F0AC
:10AFE0005DFB44F2B40304F58142E6583832306820
:10AFF0007168154603C5B06828601068516804F58B
:10B000008143503303C39068186094F9B2306BB138
:10B0100094F8B43B03F0030307FB034304F6A45086
:10B02000D3F86E1AD3F8722A1AF044FB42F6E833CA
:10B030000022E2542046002108F0D8FB04F52C50F1
:10B040001C3050F08DF904F5E250083011F0B4FBDB
:10B05000A6E70522E254A3E758150220FFF77EBFBA
:10B06000F8B542F6C8730446C35C012B0CD00B2123
:10B0700008220EF0F7FD04F50F50383006212C4A57
:10B08000BDE8F8403AF0B4B900F5834500F53F5308
:10B090005C3528465E8E0BF06BF9074638B104F537
:10B0A000814128465031BDE8F8400CF049BB162ECE
:10B0B00006D0152E29D142F6A473E35C072B06D1E6
:10B0C00020460FF079FD20460FF052FE2BE020467F
:10B0D00001F0DCFB204601F05BFA42F6B47694F90D
:10B0E000D820A15904F563552435642328465A43D2
:10B0F00059F046FEA051284659F0FCFF98B1394658
:10B100004620BDE8F84041F067B81E2E1CBF42F64D
:10B1100024734FF0FF32204618BFE25001F0B6FB17
:10B12000204601F035FA2046BDE8F84001F01EB88F
:10B13000ECCB0C082DE9F0412DED028B42F6C43327
:10B140000446C75C0A2F04D190F952302A2B05D14E
:10B15000052742F624734FF0FF32E25004F5834690
:10B160005C3630460BF03EF904F5E2550835002810
:10B1700040F01D823046FFF7B5FD002840F01782F1
:10B1800042F6A473E35C042B09D104F56350243028
:10B1900059F0C0FF95F8683060F3410303E095F87B
:10B1A000683043F0020385F86830152F00F21F82E3
:10B1B000DFE817F0690154014C012C00650086009E
:10B1C0001101140186001D021600280028001D022E
:10B1D0001D001D001D02840184018401840184017D
:10B1E000BDEC028B2046BDE8F041FFF739BF42F6C7
:10B1F0006873E35C9D0705D544F29023E35C002B64
:10B2000040F0DA81204601F041FB32E142F2953311
:10B2100042F294360025A5552046E55401F080FA07
:10B2200041F6584342F6B472E158D4F8F0399942E5
:10B2300002DA5B42994201DCA35002E00123A355EC
:10B24000A55041F65C43B4F91C20E158914242F606
:10B25000B87308DAD4F8F4299142C1BF42F29532AA
:10B260000121A1540022E250204607F0C1FE00282F
:10B2700000F0BD8142F6B872A3585B42ECE042F6A2
:10B28000FC63E25C42F6B47342B104F53C52D2ED89
:10B29000007AFDEEE77A17EE902A02E041F6584276
:10B2A000A258E25042F6FD63E25C42F6B87312B176
:10B2B00042F6047201E041F65C42A258E25096E187
:10B2C000D4F8400940F0B6FAD4F8F03907EE903AD5
:10B2D000F8EEE77A42F6B47520EE270AFDEEC07A62
:10B2E00017EE900A6051D4F8F0391A46594226F008
:10B2F000D1FB6051204601F013FAD4F8440940F024
:10B3000099FAB5EEC00AF1EE10FACBBFB4F91C20E1
:10B31000D4F8F42907EE902A07EE902ACBBFF8EE76
:10B32000E77AF8EEE77A20EE270A27EEC00A42F61F
:10B33000B873BDEEC00A42F6B87510EE102A20466A
:10B34000E25001F0BBF96059D4F8F419B4F91C20AB
:10B3500026F0A0FB6051204607F04AFE10B1635969
:10B360005B42635142F6D033E35CD80704D594F9CD
:10B370007430022B00F0278194F8E40043B2002BD4
:10B3800040F335810138C0B240F08EFB40F2A46337
:10B39000984240F22C8142F63072A35C990600F18B
:10B3A000268104F53D5191ED007AD4ED327AB4EE68
:10B3B000E77AF1EE10FA40F11A81BDEC028B04F548
:10B3C0000F5043F02003A354383004218A4ABDE8CB
:10B3D000F0413AF00DB8D4F8400911E0D4F8400932
:10B3E000B0F90230002B40F0FA80D4F84C39B3F9B0
:10B3F0000230002B40F0F38042F60873E35CDBB9C7
:10B4000040F018FAD4F8F03907EE903AF8EEE77AFF
:10B4100042F6B47520EE270AFDEEC07A17EE900AC8
:10B420006051D4F8F03959421A4626F033FB605186
:10B43000204601F075F902E0204601F027FABDEC44
:10B44000028B2046BDE8F04108F0D6BF42F6B47248
:10B450000023A35042F6B872A350C8E0D4F8F039E4
:10B46000032293FBF2F342F6B4722046A35001F09C
:10B4700057F9204601F08CF8BDEC028B2046BDE860
:10B48000F04100F073BED4F8400940F0C9F901461C
:10B49000042040F0A1FED4F8440940F0C1F901466F
:10B4A000132040F099FED4F84C0940F0B9F942F26B
:10B4B0009A33E05242F29833E05298E044F2E017B7
:10B4C000D4F8F039E25F9FED4D7A9342A8BF13465E
:10B4D000D4F84029B2F9022007EE902AF8EEE77A74
:10B4E0001AB2C7EE877A42F6B478514204F5834522
:10B4F000603507EE102AB8EEC77A67EE877AFDEE60
:10B50000E77A17EE900A44F8080026F0C3FA44F8E8
:10B510000800D4F8440940F08DF93046B0EE408A76
:10B520000EF0D2FF42F6B876E15F58B107EE901AFE
:10B53000F8EEE77A28EE278ABDEEC88A18EE103AB0
:10B54000A35154E0B5EEC08AF1EE10FAB4F91C2014
:10B5500013DD8A42B8BF04F11C05B5F9003007EECF
:10B56000903AF8EEE77A42F6B87328EE278ABDEEF5
:10B57000C88A18EE101AE15010E0D4F8F4395B4292
:10B580008B42A8BF0B4607EE903AF8EEE77A28EE1A
:10B59000278ABDEEC88A18EE103AA35142F6B87554
:10B5A000D4F8F419605926F075FA60511FE095F847
:10B5B00068306FF34103F6E5BDEC028B3046BDE821
:10B5C000F0410CF053B942F6B4720023A35042F696
:10B5D000B8724620A350012140F0A2FCCCE642F60E
:10B5E00008720023A35442F61072A35004E7BDEC86
:10B5F000028BBDE8F08100BF17CC0C0800A08C4581
:10B60000FFF798BD38B52DED028BB0F95A50002DDB
:10B61000B8BF6D42044625B9B0F92250002DB8BF1D
:10B620006D4242F6C433ADB2E35C073B082B00F237
:10B63000B580DFE803F06AB3B3051662B362620057
:10B6400004F5E253083393F83C31D80740F1A68063
:10B65000BDEC028B04F53F500830BDE838402AF0BD
:10B6600027BD44F29023E35C002B55D044F26623BF
:10B67000E356012B50D142F6F823E05803689B6B48
:10B68000984788B15CF0B0FA42F6C833E358C01A64
:10B69000B0F57A7F40D9BDEC028B204615210022FF
:10B6A000BDE838400EF0DEBA04F5814004F5814172
:10B6B00004F5814244303831503226F0C3FB002873
:10B6C000E0D104F5834004F53D535C3093ED058AE9
:10B6D0000BF086FD07EE905AF8EEE77AF4EEC07AAA
:10B6E000F1EE10FAC4BF07EE905AB8EE670AB4EE56
:10B6F000C08AF1EE10FAC5D40EE00021BDEC028B39
:10B700002046BDE8384008F0F7BFBDEC028B20466C
:10B71000BDE8384008F0CCBD94F93030012B11D190
:10B7200042F63073E35C59060CD4204608F00EFF55
:10B7300040B142F6FC3340F2CE72E35803F2E733F5
:10B74000934219D994F93030022B04D142F6307368
:10B75000E35C5B0610D5B4F95A3083EAE371A1EBE0
:10B76000E3710029CAD0002B44F29403B4BFFF2236
:10B77000012289B2E254C1E704F53F5008302AF0B3
:10B7800097FD20B120460A2100220EF06BFA42F606
:10B790003072A35C43F04003A354DCE7BDEC028BA2
:10B7A00038BD000070B542F6A4730446C35C8B42FA
:10B7B0000D461ED00B1F594200F5635059412430ED
:10B7C00059F0ECFB072D0CD142F6347304F50F5001
:10B7D000E658084A64233830052196FBF3F339F024
:10B7E00007FE42F6A4732046E554BDE8704003F01E
:10B7F00071BD70BD27CC0C0838B542F69C73044669
:10B80000C35CD9072CD542F69D73C35C43BB42F69B
:10B81000C433C35C0A2B30D100F583455C35284620
:10B820000AF0A6FD10B1204602213FE042F6307337
:10B83000E35CDA0702D42046012137E004F53F53E8
:10B8400030335B88152B13D104F563502430037912
:10B85000DB0729D442F6A473E35C072B10D123E065
:10B8600004F583455C3528460AF0BCFD0028DAD192
:10B870002846FFF737FA0028D5D12046032115E0E6
:10B8800043F64A23E35613B3D4F84839B3F90230E8
:10B89000592B1CDD59F06CFBC8B104F50F50383042
:10B8A00006210C4A39F0A4FD20460721FFF77AFF54
:10B8B00004F5496004F5375415F0A2FD94F83031D1
:10B8C0007C220C3402FB034484ED100A38BD204670
:10B8D0000421EBE748CC0C0830B542F6653389B05B
:10B8E000C35604466BB300F52D501C302EF0E8FB18
:10B8F000154D42F690332A68E358934221D02B60CD
:10B9000042F67D3304AAE35C8DF80F3004F52E5324
:10B9100093E8030082E803001946083103C906AB27
:10B9200083E8030004F52D512C3104F5E250019118
:10B93000083000950DF10F0112F0A6FF204603F02C
:10B9400075FD09B030BD00BF5C150220FFF7C4BF14
:10B9500070B543F6482604468357002B27DD08F0D0
:10B96000DFF820BB04F58345203528464FF06AFAFE
:10B97000E8B128464EF064FD00B970BD5CF034F9C2
:10B9800042F65C73A257E358C01A4FF47A735343DC
:10B9900098420CD320460EF049FB40B104F50F50FD
:10B9A00038300621024ABDE8704039F021BD70BD33
:10B9B00065CC0C0810B52DED028B42F6A47304463D
:10B9C000C35C042B09D105F0E5F82046B0EE408AAF
:10B9D00005F0ECF938EE400A03E000F5824494EDFE
:10B9E000010ABDEC028B10BD10B50A46044903469E
:10B9F000086801680C681946024BA047002010BD7A
:10BA000040590220A8150220F8B50446FFF774F942
:10BA100094F9B130012B02D1204601F0E5FE04F586
:10BA2000E25508352846002112F064FE20468021A8
:10BA30000EF0B8FA18B104F69C1034F07BFEB4F99D
:10BA40001A30C4F8F03904F58347B4F91E30C4F84D
:10BA5000F4395C3738460EF037FD28BBD4F8F0399E
:10BA600007EE903A04F5EC5393ED037AF8EEE77A9B
:10BA700067EE877AFDEEE77A17EE903AC4F8F03970
:10BA8000D4F8F43907EE903A04F5EC53B8EEE77ABF
:10BA9000D3ED027AF0EEE77A67EE277AFDEEE77AE9
:10BAA00017EE903AC4F8F439284612F06BF90646BE
:10BAB000284612F073F904F53C5500F118013046A0
:10BAC00028F044FE2C3504F5824696ED027AD5ED39
:10BAD000007AE0EE077AC5ED007AB0EE670A25F04D
:10BAE000C5FF384685ED000A09F0ECFA04F58340FD
:10BAF00096ED020A6430BDE8F84051F0F7BC000052
:10BB0000FFF782BF70B590F9B2300446FBB100F682
:10BB1000A456304619F06EFD00B970BD04F5E2552B
:10BB2000083528462E6713F053FB20464FF48061FA
:10BB30000EF038FA58B1284612F04CF838B904F62D
:10BB40009C1000220023BDE8704037F07FBC70BD20
:10BB5000FFF7D8BF70B5044600F50F50002138300C
:10BB60003BF0D6F920460CF091F804F5E25008308D
:10BB700013F02EFB43F6BE236289E25204F56952AC
:10BB8000A38992F88D10103251B91BB207EE903A8A
:10BB90009FED2C7AF8EEE77A67EE877AC2ED1E7A8F
:10BBA000294BE28C1A7004F58345203540F0FAF8F1
:10BBB00028460021FEF726FF244E012370722846F6
:10BBC000B3724EF03DFC28B928464FF03BF9B0FA6D
:10BBD00080F040093072042120460EF0E3F930B1C4
:10BBE00004F54150343004F69C1131F077FC2846BE
:10BBF0004EF026FCB8B994F8B43B0C2203F00303D2
:10BC000002FB034244F24811D2F8400A625841F262
:10BC10008835821AAA4206D96C2202FB034393F8A4
:10BC2000613A022B04D82046BDE870400CF01ABCE3
:10BC30006050204605F0FAFC04F5635300225A6276
:10BC4000F1E700BFC0CFF83F0A080220B85A02202F
:10BC5000FFF780BF70B5044600F5E256083604F5DC
:10BC600081413046443112F0CDF804F5824542F668
:10BC7000E9330435E0542946304611F093FCD5ED04
:10BC8000007AF1EE677AC5ED007A04F6F810BDE8A7
:10BC900070401DF005B80000FFF7DCBF2DE9F04F44
:10BCA0002DED028B00F5496587B00446284615F056
:10BCB0007DFC04F5E2500023083003A903930493AC
:10BCC000059312F0E7F910B19DED050A13E094F821
:10BCD000B43B03F003026C235343E21892F8611A59
:10BCE00002296DD992F8A02AD20769D504F6F81274
:10BCF000134493ED260ADFED397A04F53D5393EDB5
:10BD0000037A20EE270ADFED367AA7EE270A2046CF
:10BD1000012183ED030A07F069FD2046FFF76CFD62
:10BD200042F69C73E35CDB0753D542F69D73E35CFC
:10BD3000002B4ED142F6A473E35C042B46D104F5EC
:10BD4000814604F581454436503504F5814130463D
:10BD500038312A4626F076F8C0B33046294625F019
:10BD60003FFFB0EE408A42F6FC232046E658336897
:10BD70005F6805F039F842F6EC33824654F80390D8
:10BD800042F6A473204614F803800EF081FF42F6B9
:10BD9000F6338346E55A2046FFF70CFE2DB204F534
:10BDA0003F54CDF800B00195F0EE400A30465146C0
:10BDB0004A464346B0EE480A94ED001AB84708E0F8
:10BDC000284615F0CFFAB1EE400A94E79FED058AB8
:10BDD000C9E707B0BDEC028BBDE8F08FCDCC4C3E7F
:10BDE000CDCC4C3F00000000FFF758BF38B542F6FD
:10BDF0009C730546C35CD90711D59A070FD590F9F6
:10BE0000B930CBB107F0AAFC0446A8B142F6D23350
:10BE1000EB5E8BB928460CF0D5F868B90DE042F618
:10BE2000D033EB5CDB0705D595F97440023C18BFB5
:10BE3000012402E0012400E00024204638BD000077
:10BE400010B52DED028B0446B0EE408A07F0D0F815
:10BE500078B142F6B472A35803F58C415031A15029
:10BE600041F6584161580029BEBFA3F58C43503BB1
:10BE7000A35042F6C433E35C022B07D1D4F8403917
:10BE8000B3F90220003218BF012200E0002242F67E
:10BE9000B47304F50650E15841F65843B0EE480A31
:10BEA000E3581830C91A4CF0CBF9BDEC028B01B243
:10BEB000BDE81040042040F08FB9000038B52DEDEA
:10BEC000028B0546F0EE408A0FF00CF8044630B1C4
:10BED00000EB4004C4EB0411132009B233E042F636
:10BEE000B873B5F9AC20EB58134407EE903A4620EE
:10BEF000B8EEE78A40F082F907EE900AB8EEE77AEA
:10BF0000D5ED0F7A42F6C433A7EE278AEB5C022BFD
:10BF1000BDEEC88A07D1D5F84439B3F90220003202
:10BF200018BF012200E0224641F65C4305F50950A6
:10BF3000E95818EE103A0430591AB0EE680A4BF07E
:10BF4000E7FF01B21320BDEC028BBDE8384040F0A2
:10BF500043B90000B0F900309FED176A07EE903A40
:10BF6000B0F90630B8EEE77A07EE903AF8EEE77AE5
:10BF7000B1F9003077EE677A82B0F0EEE77AF4EE4E
:10BF8000C67AF1EE10FA58BFF0EE467A36EE677ACE
:10BF900007EE903AF8EEE76AC7EE067A66EEA77A01
:10BFA000FDEEE77ACDED017ABDF804300B804288D2
:10BFB00013440B8002B070470000C84313B5044619
:10BFC000FFF714FF38B342F6C433E35CA3F1110268
:10BFD000042A20D9033B052B1DD9042040F00EF97B
:10BFE00002A921F8040DD4F84009FFF7B3FFBDF909
:10BFF0000410042040F0F0F8132040F0FFF802A9EC
:10C0000021F8020DD4F84409FFF7A4FF1320BDF96D
:10C01000061040F0E1F802B010BD000038B52DED7B
:10C02000028B0446FFF7E2FE002800F09B8042F6F8
:10C03000C433E35CA3F11102042A40F29380DA1EB8
:10C04000052A40F28F800A2B04D194F952302A2B12
:10C0500000F08880D4F840093FF0ECFBF6EE007A5F
:10C06000B4EEE70AF1EE10FAF0EE678A02DDFFEEB9
:10C07000007A08E0FEEE007AB4EEE70AF1EE10FA7C
:10C0800007D5F7EE007AB0EE087AE0EE077AB0EE68
:10C09000670A42F6B475635907EE903AD4F8F0395E
:10C0A00007EE103AF8EEE77AB8EEC77AE0EE077AD4
:10C0B000FDEEE77A17EE900A6051D4F8F039594254
:10C0C0001A4625F0E7FC6051D4F844093FF0B2FB72
:10C0D000B4EEE80AF1EE10FAB0EE408A02DDFFEEAF
:10C0E000007A08E0FEEE007AB4EEE70AF1EE10FA0C
:10C0F00007D5F7EE007AB0EE087AE8EE077AB0EEF0
:10C10000678A204606F074FF08B1B1EE488A42F60D
:10C11000B873B5EEC08AE158B4F91C20F1EE10FAFC
:10C1200007EE901AD6BFD4F8F41907EE102A07EEDE
:10C13000101AF8EEE77ACABFB8EEC77AB8EEC77A37
:10C14000E8EE077A42F6B875D8BFE8EE477AFDEE1A
:10C15000E77A17EE901AE1506059D4F8F41925F0F7
:10C1600099FC6051BDEC028B38BD000037B590F9E9
:10C170000730012B044602DC462000211CE042F679
:10C18000FC23C05803689B68984742F6C43301906B
:10C19000E35C0E3B012B0CD80E4D42F688742B59F4
:10C1A0003BB15BF021FD2B59C01A40F6B7339842E2
:10C1B00007D9BDF90410462003B0BDE8304040F077
:10C1C0000BB8054BD3ED007AFDEEE77ACDED017AA1
:10C1D000EFE700BFA81502202C450220F8B52DED91
:10C1E000028B42F6C4330546C35C022BB0EE408A94
:10C1F00006D142F6BC72845E003418BF012400E010
:10C2000000240E3B012B1CD81F4E06F53E573B6801
:10C21000002B16DD5BF0E8FC3B68C01A40F6B73334
:10C2200098420ED842F67473F05A184900B241F29F
:10C23000941225F037FCBDEC028B42F29A33E8529F
:10C24000F8BD05F50B502146B0EE480A38304CF0E9
:10C250005DF9044604203FF0D1FF07EE900A23B2B7
:10C26000F8EEE76A07EE903A95ED0D7AF8EEE77A88
:10C2700042F6BC73E6EE877AE85AFDEEE77A17EEEF
:10C28000903A034498B2D0E7A81502206CEEFFFF65
:10C2900070B542F6F8230446C0580368DB68984737
:10C2A000014604F50D5004304CF00EF942F2983579
:10C2B00004F50E56605320461836FFF797FD20B15F
:10C2C000D4F84C093146FFF745FE605F034941F25F
:10C2D000941225F0E7FB605370BD00BF6CEEFFFFCA
:10C2E00038B590F8B42B00F6F81302F003026C2175
:10C2F00001FB023393ED207AF7EE007AB4EEE77A91
:10C30000F1EE10FA044619D5D0F84839B3F90230E5
:10C31000A3B942F6A472825C012A0FD0072A0DD07D
:10C3200042F62872835400F53C530022DA6242F64A
:10C33000BC73C25A42F29833C25238BD42F6A4715D
:10C3400042F6BC73615CE35AB4F84420012912D070
:10C35000072910D01BB200EE103ADFED297AB8EEB3
:10C36000C00A13B2C0EE277A00EE103AB8EEC00A47
:10C3700027EE800A01E09FED230A9FED237AF0EE7D
:10C38000C07AF4EEC77AF1EE10FA42F6287302D4BE
:10C390000022E2540BE0E25C4AB901229142E254ED
:10C3A00005D007291EBF04F53C530022DA6242F68D
:10C3B000287304F50D50E35C043013B94BF064FFAF
:10C3C00011E004F53C5393ED0B7ADFED107A67EE44
:10C3D000C77A9FED0F7A67EE877AFDEEE77A17EE60
:10C3E000901A4CF071F842F2983342F29835E052CC
:10C3F0000849605F41F2941225F054FB605338BD48
:10C4000000A08C450000000000000034E02E6542D2
:10C410000000C8426CEEFFFF70B500F5635524358F
:10C420002DED028B04462846B0EE408A58F054FCAD
:10C4300020B142F296330122E2541BE0D4F8403995
:10C44000B3F9023073B904F58243D3ED017A94ED68
:10C45000107AF0EEE77AF4EEC77AF1EE10FA4CBFFC
:10C460000120002042F29636A055284658F04EFC96
:10C4700000B9A055284658F02FFC40B942F6247365
:10C48000E35801330FD042F29633E35C5BB12046B0
:10C49000FFF7FEFEB0EE480ABDEC028B2046BDE879
:10C4A0007040FFF79BBE42F29633E35C002BF1D065
:10C4B0002046FFF715FFEDE738B52DED028B42F270
:10C4C00094330446C35CB0EE408A002B4FD1FFF793
:10C4D000B7FC42F6B473E358002B05DC42F6B473A4
:10C4E000E358002B13DA09E0D4F8403904205D88C2
:10C4F0003FF084FE2DB2854239DBEFE7D4F84039B6
:10C5000004205D883FF07AFE2DB285422FDC42F296
:10C510009533E35C9BBB2046B0EE480AFFF7CEFCA8
:10C5200042F6B873E358002B05DC42F6B873E358C3
:10C53000002B13DA09E0D4F8443913205D883FF06A
:10C540005DFE2DB285421ADBEFE7D4F844391320A3
:10C550005D883FF053FE2DB2854210DCB0EE480AF4
:10C56000BDEC028B2046BDE83840FFF755BFD4F83C
:10C5700040390420B3F902103FF02EFEC7E7D4F88B
:10C5800044391320B3F902103FF026FEE6E700001D
:10C59000F8B542F6FC230446C0580368DB689847A8
:10C5A00042F6C4330646E35C0E3B012B0DD80E4D1C
:10C5B00042F67C77EB59002B07DD5BF015FBEB595E
:10C5C000C01A40F6B73398420AD93046D4F8F41965
:10C5D000B4F91C2025F05EFA42F6B873E050F8BDBD
:10C5E00042F67073EE58F0E7A815022030B5034606
:10C5F000B0F8720000285FD042F6C4329A5C013A6B
:10C600000E2A56D8DFE802F049555555554F4C557E
:10C61000550846435552520003F53F535C8E162C85
:10C6200049D085B205F002039BB200F001022BB1A4
:10C63000A4F1150CDCF1000343EB0C03134305F0EC
:10C64000040292B21AB1A4F11F004242424105F025
:10C65000080113438AB25AB11F2C08D0A4F1120268
:10C66000012A04D9A4F111014A424A4100E0012201
:10C6700005F0100080B21A4338B1102C04D0A4F198
:10C6800052035842584100E00120104330BDC0F32E
:10C69000401030BDC0F3801030BDC0F3C01030BDBD
:10C6A000C0F3002030BDC0F3402030BDC0F3802077
:10C6B00030BD012030BD002030BD000010B5044663
:10C6C0000DF074FC002827DB94F90730984223DA38
:10C6D00042F6A472A25C022A1ED042F6B87294ED11
:10C6E000126AA158DFED0D7A27EEC66A07EE901A9E
:10C6F000191AB8EEE77A06EE903A07EE901AF8EEBD
:10C70000E66AF8EEE77AC7EEA67AA6EE277AFDEE9D
:10C71000C77A17EE903AA35010BD00BF0000C84280
:10C72000F8B52DED028B42F6B4739FED520AC35853
:10C730009FED517A07EE903AF8EEE77A044667EEFD
:10C74000807A9FED4E0AF0EEE77AF4EE477AF1EE4A
:10C7500010FAC8BFF0EE477A27EE800AB8F0B0F8BA
:10C7600025F0C6F8B7EE008A88EE000A04F5834586
:10C7700004F53F565C35284686ED000A0AF0E0FCD9
:10C7800020B144F24033E358DB0762D494F92130FE
:10C79000002B6CD0204606F02BFC002867D12846E1
:10C7A0000DF092FE002862D1B4F90A30012BB8BF17
:10C7B000012307EE903A04F53F52B8EEE70AD2EDB6
:10C7C000017AC7EE807AF4EEC87AF1EE10FA0ED84C
:10C7D00042F6B4752A49605940F6C41225F05AF958
:10C7E00060512749D4F8F00940F6C4122CE096EDC8
:10C7F000007AF4EEC77AF1EE10FA38D5B7EE000AF7
:10C8000080EE270A42F6B47720EE000AB8F004FA68
:10C81000DFED1C7AE05920EE270ADFED1B7A20EECF
:10C82000270A40F6C413FDEEC07A17EE905A9D42D7
:10C83000B8BF1D466E4231462A4625F02BF9E0511D
:10C84000D4F8F00931462A4625F024F9C4F8F00955
:10C850000DE094F9D820642312FB03F3D4F8F029F7
:10C860009A42D4BFC4F8F029C4F8F0398EE7BDEC81
:10C87000028BF8BD0AD7233C0000AA4235FA8E3C51
:10C880003CF6FFFFE02E65420000C842F8B542F6D4
:10C89000F8230446C05803681B68984742F6C4331F
:10C8A0000646E35C0E3B012B0DD8104D42F678771F
:10C8B000EB59002B07DD5BF097F9EB59C01A40F6F6
:10C8C000B73398420DD9D4F8F0293046514225F0BB
:10C8D000E1F842F6B473E0502046BDE8F840FFF7B7
:10C8E0001FBF42F66C73EE58EDE700BFA81502209B
:10C8F00010B52DED028B044682B000F5E2500830F1
:10C9000001A910F0D5FD002854D004F53D539DED4C
:10C91000010AD3ED007AB4EEE70AF1EE10FAC8BFCF
:10C9200083ED000AB4F90A30DFED457AD4ED136ADD
:10C9300000EE903AB4F90C30B4EEE70A07EE903A04
:10C94000F8EEE00AF6EE008AB8EEE77A60EEA80AA2
:10C95000F7EE087A67EE277AC0EEA60AC7EEA67A47
:10C96000F1EE10FAB0EE006AF4EE680ACCBF86EE83
:10C97000800AB0EE460AF1EE10FAF4EE467AC8BF2D
:10C98000F0EE680AB0EE001AF1EE10FA58BFB0EE01
:10C99000671A25F091F804F583405C30B0EE408AC8
:10C9A00009F020FD002845D0264B1B685B6C1B79E5
:10C9B00003BB3FE046203FF021FC00280FDD46206E
:10C9C0003FF01CFC07EE900AB8EEE77ADFED1E7A26
:10C9D000C7EE877AB6EE000AA7EE800A01E09FED67
:10C9E0001B0ADFED1B0A9FED191A25F065F8B0EE62
:10C9F000408A1FE0B4F90A309DED011A02EE103AA8
:10CA0000B8EEC22A22EE282AB4EEC21AF1EE10FACB
:10CA100010D5D4ED130A9FED0F0AC0EE820AF0EE96
:10CA2000401A24F075FFB4EEC08AF1EE10FA58BF38
:10CA3000B0EE408AB0EE480A02B0BDEC028B10BDE9
:10CA400017B7D13840590220000034428FC2D53F79
:10CA50009A99193F0000000070B52DED028BD0F8B7
:10CA600040399FED617AB3F90230F0EE408A00EE72
:10CA7000103AB8EEC00AB0F98C30C0EE077A00F573
:10CA800006550446183500EE103AD0F84439B3F98B
:10CA9000023008EE103AB8EEC00AB8EEC88A27EEA7
:10CAA000800AC8EE077AB0F98E3008EE103A90F995
:10CAB0009030B8EEC88A27EE888A43B19FED4B7A52
:10CAC000F0EEC07AF4EEC77AF1EE10FA1DD442F619
:10CAD000FC630022E2542846F0EE680A4BF0ACFBFF
:10CAE00001B204203FF078FB94F9903004F509502E
:10CAF0000430002B6CD09FED3D7AF0EEC87AF4EE56
:10CB0000C77AF1EE10FA38D462E042F6FC6300F521
:10CB10003C56C25C22B90122E2540023336010E08B
:10CB200004F5E250083011F02DF904F58243D0ED00
:10CB3000006A93ED027AD6ED007AE6EE877AC6EDCA
:10CB4000007A96ED007ADFED2A7A67EEC77A9FEDDC
:10CB5000297A67EE877A41F65843FDEEE77AE35883
:10CB600017EE901A42F6B4720B44A3502846B0EE6A
:10CB7000680A01224BF064FBB2E742F6FD63E25C17
:10CB80003AB90122E25441F65C43E25842F604739A
:10CB9000E25042F6047342F6B872E358A35041F6ED
:10CBA0005C42B0EE680AA1580022591A4BF0B0F965
:10CBB00001B213203FF010FB42F6BC73BDEC028BB8
:10CBC00042F29A32E35AA35242F29832A35270BD13
:10CBD00042F6FD630022E254B0EE480AF0EE680A25
:10CBE0004BF0AAF8E4E700BF00A08C450000003439
:10CBF000E02E65420000C84270B52DED028B42F672
:10CC0000C4330446C35C002B00F0C880FFF770FEFD
:10CC100004F583455C352846B0EE408A0DF0DAFC19
:10CC2000D0B144F21833DFED5F0AE3569FED5E1A90
:10CC30005A1D6423534300EE103AB8EEC00A24F0A4
:10CC40003BFFBDEEC00A42F6B87310EE102AE25068
:10CC500042F6B4730022E25042F6C433E35C032B85
:10CC600005D12046B0EE480AFFF726FC30E0042B41
:10CC700005D12046B0EE480AFFF7EEFE28E0113B52
:10CC8000042B04D828460DF0A5FC002853D094F9B5
:10CC9000B930012B04D142F6C433E35C022B4ED1F0
:10CCA0002046B0EE480AFFF7CBF82046B0EE480A1F
:10CCB000FFF704F994F9B930022B44D042F6C4339B
:10CCC000E35C022B3FD02046B0EE480AFFF7A4FBFE
:10CCD000D4F84839B3F90230002B5FD104F5824310
:10CCE000D3ED017AB1EE047AF0EEE77AF4EEC77A8A
:10CCF000F1EE10FA52D504F5496014F033FBF6EE6C
:10CD0000007AB0EEC00AB4EEE70AF1EE10FA45D5AB
:10CD100094F8B42B04F6F81502F003026C2606FB17
:10CD2000025292ED207AF0EE087AB4EEE77AF1EE54
:10CD300010FA0CD432E028460AF064FDC8E7204619
:10CD4000FFF76CF9ACE72046FFF738F9BBE704F5CD
:10CD5000065018304BF094FA04F5095004304BF0AB
:10CD600031F904F50B5038304BF028FD94F8B42B12
:10CD700002F0030206FB025393ED207AF7EE007AED
:10CD8000B4EEE77AF1EE10FA08D5BDEC028B04F5AB
:10CD90000D500430BDE870404BF0B4BBBDEC028BCD
:10CDA00070BD00BF00E0AB4500D0044600207047D6
:10CDB00001207047002070470120704742F6C433BD
:10CDC000014AD05C704700BFA8150220014B93F8C0
:10CDD00028007047A8150220014B93F92A007047DC
:10CDE000A8150220034B93F9B100431E5842584145
:10CDF000704700BFA815022044F26423024AD056AF
:10CE0000003018BF01207047A81502200048704765
:10CE10004C230220004870477045022000487047AC
:10CE2000C440022000487047F05502200048704777
:10CE30003C410220014809F0A9B900BF84570220F3
:10CE400010B5204B42F6C43201249A5C152A0FD843
:10CE50001D499440214041B91C49214039B914F081
:10CE6000190F14BF4024012402E0182400E010240C
:10CE700042F29531595C21B142F294311148415C42
:10CE800009B944F0100493F9B91012F0EF0F18BF6C
:10CE900044F0100409B1102A0ED193F9B130012BDE
:10CEA00008BF44F02004102A09D009484DF0C8FA00
:10CEB00028B144F0800402E044F04004EDE744F07F
:10CEC000010010BDA815022002DC2000E4011E00B4
:10CED000485702202DE9F0432DED028B8BB08046A0
:10CEE00012F038FBDFF89490476890ED028AC6682C
:10CEF000B9F8AC5004461E480DF0E6FA68B92DB2F8
:10CF000007EE905A9FED1B7AF8EEE77A67EE677AA4
:10CF10009FED197AA7EE878A07E044F22C3359F87F
:10CF200003305F6893ED028ADE6823682046DB6A7F
:10CF30009847044698F818505AF056FE6268A3685D
:10CF400021680892099327221C23039007910192DC
:10CF5000009328461E2103AA04978DED058A0696A4
:10CF60003DF038F90BB0BDEC028BBDE8F08300BF9B
:10CF7000845702200AD7233C35FA8E3CA81502209C
:10CF800008B504480DF012F80028B8BF404200B2BE
:10CF900008BD00BFA8150220F0B50C89CB791C4E46
:10CFA0001C4843EA042343F3170444F2D107C4F3B3
:10CFB00007237370C455C4F30743B3708B79DB0741
:10CFC00013D544F2B403C558AB786A7842EA032219
:10CFD000EB7842EA034343F317032344C3F30722E6
:10CFE000C355C3F307437270B37044F2D003C25CFD
:10CFF0006FF30002C2548A79C15CC2F3C00262F3CB
:10D00000C301C1540348BDE8F04003F037BB00BF83
:10D0100079560220A815022070B542F6C4331A4C86
:10D02000E35C0F2B2ED10B46184A53F8060F5968B4
:10D0300003C244F2DC059868615D1060CB071CD523
:10D0400044F2B4036059E658B378727842EA032296
:10D05000F37842EA034343F3170303EB202344F23C
:10D06000DD000B4A2354C3F30720C3F30743937037
:10D070000B466FF3000363555070034804F082FAC7
:10D08000012070BD002070BDA8150220845602202A
:10D0900085560220152910B50BD80124064804FA3C
:10D0A00001F3184030B1054802220CF0DBFD2046A8
:10D0B00010BD002010BD00BFFFDD3E00A8150220FE
:10D0C00010B5074C20465AF021F828B914F092FC0C
:10D0D000BDE8104014F046B994ED320A10BD00BF0F
:10D0E000DC1C022008B5134842F6C433C35C102B85
:10D0F0000DD042F6D233C35E5BB942F61153C35C26
:10D100003BB942F6D033C35C5A0704D501E0022094
:10D1100008BD052008BD42F68C73C35C9B0706D48E
:10D1200006F0FEFC002814BF0420032008BD0620E2
:10D1300008BD00BFA8150220F0B5264B93F9B13009
:10D14000012B8FB043D1244B9FED245AB3F93220E9
:10D15000DFED235A196AD3F80CE01F695E699D69F7
:10D16000DC69007E06EE102AB3F9342006EE902A20
:10D17000B3F9362007EE902AB8EEC66AF8EEE66AF2
:10D18000B8EEE77A26EE056A66EE856A67EE057AFE
:10D190005A6A9B68039326EE256A66EEA56A67EED7
:10D1A000A57A0D922C239A220C9101920093A4212E
:10D1B00003AACDF810E005978DED066ACDED076A5C
:10D1C000CDED087A09960A950B943DF003F80FB05F
:10D1D000F0BD00BFA8150220681502206F12833A27
:10D1E0000AE81C4113B542F6F0631C49CB5C012BE5
:10D1F00026D8142202FB031202F5375090F91D00C5
:10D20000F0B17C2000FB031000F53854247CE407C7
:10D2100016D502F53752D2ED047AF0EEE77AF5EE44
:10D22000C07AF1EE10FA03DC00F53850027F3AB113
:10D230007C2202FB031303F5375393ED0F0A0BE037
:10D2400012F088F9036801A9DB6D984710B19DEDD4
:10D25000010A01E09FED020A02B010BDA8150220EC
:10D26000000000000B4991F930378BB1907A537A66
:10D2700043EA0023D07A43EA0043A62B08D06D2B63
:10D2800006D0B1F92800D3791B1A5842584170478B
:10D2900001207047A815022030B542F6C4331D4C5A
:10D2A000E35C91B0002B33D0057E5AF09DFC44F234
:10D2B000D4039FED197AE158039044F2D803049106
:10D2C000E258059244F2D0039622E358019243F3C8
:10D2D000172307EE903A0023F8EEE77A07930893B6
:10D2E00009930A930B930C930D930E934FF6F873D7
:10D2F000ADF83C30052367EE877A8DF83E30332356
:10D3000000932846572103AACDED067A3CF062FF30
:10D3100011B030BDA81502200AD7233C70B52DED01
:10D32000028B86B00D4604465AF04EFC04F5E254DA
:10D3300008340646204612F0D9F82046B0EE408A5E
:10D3400012F0DEF800230393CD2210230192009304
:10D35000284642F60C3102AA02968DED048A8DED24
:10D36000050A3CF037FF06B0BDEC028B70BD000033
:10D370002DE9F04F2DED028B00F530568DB00546AE
:10D3800088463046002114F0E5FF28B130460021E0
:10D3900014F0C0FF002852D1FF274FF6FF74284633
:10D3A0000BF060F805F5375305F67800D3F800B0B8
:10D3B00042F6C45355F803A042F6C85355F80390FB
:10D3C0002FF098FB30460021B0EE408A14F0D6FFD3
:10D3D000DFED257ACDF810B028EE278A20EE270A57
:10D3E000BCEEC87AFCEEC07A17EE103AADF81C30ED
:10D3F00017EE903AADF81E300023ADF82230ADF8AC
:10D400002430ADF82630ADF82830ADF82A30ADF82C
:10D410002C307C221F23019200934046012104AA54
:10D42000CDF814A0CDF81890ADF820408DF82E70EE
:10D430003CF0D0FE0DB0BDEC028BBDE8F08F0021BA
:10D44000304614F0D7FE0021C7B2304614F0BCFFBE
:10D45000DFED067A20EE270ABDEEC00A8DED030A45
:10D46000BDF80C409BE700BF00007A440000C842B2
:10D470002DE9F0412DED068B42F6B47342F6F82704
:10D48000C358DFED3C9A9FED3C8A0AEE103A42F613
:10D49000B8730446C358C05909EE103A03688CB0FB
:10D4A0009B688846984707EE900AF8EEE77AE059BD
:10D4B00067EEA97A0368FDEEE77A1B69CDED037A82
:10D4C000BDF80C60984707EE900AF8EEE77A04F58D
:10D4D0003D5367EEA97AE059FDEEE77AB8EECAAAA5
:10D4E000CDED037AD3ED057ABDF80C5042F6FC334E
:10D4F000F4EEC87AE35808EE903AF1EE10FA04F52B
:10D500002F53B8EEC99AF8EEE88A48BFB0EE678AA2
:10D51000D3ED0C7A03682AEE29AA29EE299A68EE3F
:10D52000A98ADFED169A5B6967EEA99A9847FCEE27
:10D53000C87AB72217EE903AADF82C301A23019230
:10D54000009340463E2105AA8DED05AA8DED069A71
:10D55000CDED078ACDED089A8DED090AADF828606A
:10D56000ADF82A503CF036FE0CB0BDEC068BBDE8A1
:10D57000F08100BF0AD7233C00FF7F470000C8426C
:10D5800070B52DED048B88B00C4606465AF02CFB86
:10D59000054604203EF032FE09EE900A13203EF0CC
:10D5A0002DFE09EE100A46203EF028FE08EE900AF5
:10D5B00015203EF023FE08EE100A06F52E502C3002
:10D5C00040F0E0F8DFED286A9FED287A8DF81D0025
:10D5D000F8EEE99AB8EEC99AC9EEA69AED22019240
:10D5E0002046222102AA029589EE269A69EE879AA0
:10D5F00029EE079AFDEEE97AF8EEE88A17EE903AFE
:10D60000FDEEC97AADF80C3017EE903ADFED187ADE
:10D61000ADF80E30C8EEA78A68EE878AFDEEE87A8C
:10D6200017EE903AF8EEC87AADF8103087EEA68A79
:10D6300028EE078AFDEEC87A17EE903AADF8123060
:10D640000023ADF81430ADF81630ADF81830ADF851
:10D650001A308DF81C30162300933CF0BBFD08B047
:10D66000BDEC048B70BD00BF00A08C4500401C4683
:10D670000000C8427FB500F5CB5410340E4620465A
:10D6800000213FF047FE20B9204601213FF042FE35
:10D69000E0B1204600213FF027FEA8B1A56A204650
:10D6A00001213FF021FE08B1A36B00E0084B03937A
:10D6B000CF220823019200933046E2210DEB0302B2
:10D6C00002953CF087FD01E0014DE8E704B070BD34
:10D6D000000080BFF0B52DED028B0D468BB01F46CC
:10D6E000B0EE408A144602B308463DF009FD0646F6
:10D6F00028463CF02BFD1836864216DAA268E3680D
:10D7000020696168079208936222192324680590B2
:10D710000691019200932846C22103AA03948DED3D
:10D72000048A8DF824703CF055FD0BB0BDEC028BE3
:10D73000F0BD000070B500F51053183304461B7996
:10D74000002B42D090F8D1396FF3000380F8D13923
:10D750005AF04AFA1D4A1368C31AB3F57A7F054690
:10D760000BD904F50F56383610600021304639F0D9
:10D77000CFFB3046032139F0CBFB154A1368EB1A77
:10D78000142B0DD904F50F563836304615603AF093
:10D790002DFA30463BF004FA04F515602BF01CF826
:10D7A0000C4A136841F28831EB1A8B4207D904F511
:10D7B0000F50156038300621074A37F019FE94F8EB
:10D7C000D13943F0010384F8D13970BD64150220CA
:10D7D000A015022060150220B0D00C0800F50F50F3
:10D7E00038303BF0DDB9000000F50F5038303AF02A
:10D7F000FDB9000000F50F50383001F0DBBB000030
:10D8000000F50F5038303BF0A9BD000070B504465C
:10D8100000F5E25008300D4610F0B4FAB4F8E830E4
:10D82000DB0706461CD504F583405C3008F0DAFDC2
:10D8300040B144F22423E05803689B68984700F104
:10D840002C0202E004F50852283296ED000ADFEDC2
:10D850003D7A20462946012320EE270AFFF73AFFAA
:10D86000B4F8E83098071CD504F583405C3008F024
:10D87000B9FD40B144F22423E0580368DB689847BF
:10D8800000F12C0202E004F50B521C3296ED010A65
:10D89000DFED2C7A20462946022320EE270AFFF7E7
:10D8A00019FFB4F8E83059071CD504F583405C3003
:10D8B00008F098FD40B144F22423E05803681B6946
:10D8C000984700F12C0202E004F50C52283296ED44
:10D8D000020ADFED1C7A20462946032320EE270AA0
:10D8E000FFF7F8FEB4F8E8301A070DD596ED020AF6
:10D8F000DFED147A04F50D52204629463432052313
:10D9000020EE270AFFF7E6FEB4F8E830DB0617D56D
:10D9100042F6A473E35C042B12D104F56350243067
:10D9200057F01AFA96ED020ADFED067A024629460A
:10D930002046062320EE270ABDE87040FFF7CABE46
:10D9400070BD00BFE02E654210B52DED028B00F5D5
:10D95000E25088B008300C4610F0B0FAF0EE407A91
:10D960008DED020ACDED030AB1EE600AF1EE670A11
:10D970008DED041AB7F00CFA02A8B0EE408A26F03A
:10D98000AFFEDFED0B7A049B079328EE278A0C236A
:10D990000122019200932046A82105AA8DED058A57
:10D9A0008DED060A3CF016FC08B0BDEC028B10BDF4
:10D9B000E02E6542F8B504460E4639F093FD08B1F5
:10D9C000002542E1A24B1B68186C03689B699847CD
:10D9D000054648B99F482FF07FF8C72804D83BF088
:10D9E0000FFC0123037630E1F31E2A2B00F226817F
:10D9F000DFE813F02B002401470024012401240157
:10DA000024012401240124012401240124012401EE
:10DA100024015D0024012401730024012401240158
:10DA200093002401830024012401A300B300C90052
:10DA30002401240124012401D9002401EF00240140
:10DA40002401FF0024010F011F01207E3DF058FB3F
:10DA50000546207E3CF07AFB1E358542B0DA217EF9
:10DA60007D48FFF785FC207E3DF04AFB0546207E81
:10DA70003CF06CFB05358542A2DA204638F074F89C
:10DA8000E2E0754E42F6C433F35C002B00F0DC801C
:10DA9000207E3DF035FB0546207E3CF057FB1935D6
:10DAA00085428DDA3046217EFFF7E2FCCCE06A4FFA
:10DAB00097F9B150012D40F0C780207E3DF020FB4A
:10DAC0000646207E3CF042FB15368642BFF678AF14
:10DAD0003846217EFFF754FDB7E0207E3DF010FB75
