:020000040802F0
:100000000004002029150208B1FD0A08B5FD0A0800
:1000100005FE0A08B5FD0A08DDFD0A082B150208D1
:100020002B1502082B1502082B150208B58B110899
:100030002B1502082B1502082B1502082B15020898
:100040002B1502082B1502082B1502082B15020888
:100050002B1502082B15020835B2110865B21108DC
:1000600095B21108C5B21108F5B211089D04110826
:10007000C9041108F90411082905110859051108C6
:1000800085051108B5051108550011082B15020842
:100090002B1502082B1502082B15020825B3110891
:1000A0002B1502082B1502082B1502082B15020828
:1000B0002B1502082B1502082B150208CD0B110871
:1000C000410E11082D0F1108A1111108512E110810
:1000D000712E1108753B11088D3B1108A53B1108C5
:1000E00091B311082B1502082B1502082B150208D5
:1000F0002B1502082B1502082B150208E50511081F
:100100002B150208A92111087DBB11082B15020827
:10011000BD3B11082B1502082B1502082B150208F0
:10012000150611084106110871061108A1061108EB
:10013000D10611082B1502082B1502082B150208F1
:100140002B1502082B1502082B1502082B15020887
:10015000FD0611082D0711085D071108D53B110890
:100160008D121108011511082B1502082B15020814
:100170002B1502086DA411082B1502082B15020877
:100180002B1502082B150208ED3B1108053C110840
:10019000912E1108B12E1108D12E11082B1502082D
:1001A0002B1502082B1502082B1502082B15020827
:1001B0002B1502082B1502082B150208ED15110846
:1001C000611811082B1502082B1502082B150208BF
:1001D0002B15020855A411082B1502082B1502082F
:1001E0002B1502082B1502082B1502082B150208E7
:1001F0002B1502082B1502082B1502082B150208D7
:100200002B1502082B1502082B1502082B150208C6
:100210002B1502082B1502082B1502082B150208B6
:100220002B1502082B1502082B1502082B150208A6
:100230002B1502082B1502082B1502082B15020896
:100240002B150208058D1108318D1108618D1108DB
:10025000918D1108C18D1108F18D1108218E1108A1
:10026000518E11082B1502082B1502082B150208B8
:100270002B1502082B1502082B1502082B15020856
:100280002B1502082B1502082B1502082B15020846
:100290002B1502082B1502082B1502082B15020836
:1002A000B9370208CD6E02085D060308AD1F0308CA
:1002B00071090408C1BF0508C9770608F57A060860
:1002C000D56807080D710708D1740708E110080800
:1002D00031B50808E9000B0875410F0831560F08C1
:1002E0005D870F08E9AD0F08D1B20F08358C1008F3
:1002F00081F0004102E000BF83F0004330B54FEAD7
:1003000041044FEA430594EA050F08BF90EA020F43
:100310001FBF54EA000C55EA020C7FEA645C7FEAD6
:10032000655C00F0E2804FEA5454D4EB5555B8BFF9
:100330006D420CDD2C4480EA020281EA030382EA6A
:10034000000083EA010180EA020281EA0303362DFC
:1003500088BF30BD11F0004F4FEA01314FF4801CCF
:100360004CEA113102D0404261EB410113F0004FE1
:100370004FEA03334CEA133302D0524263EB430398
:1003800094EA050F00F0A780A4F10104D5F1200E36
:100390000DDB02FA0EFC22FA05F2801841F1000191
:1003A00003FA0EF2801843FA05F359410EE0A5F165
:1003B00020050EF1200E012A03FA0EFC28BF4CF096
:1003C000020C43FA05F3C01851EBE37101F000454C
:1003D00007D54FF0000EDCF1000C7EEB00006EEB59
:1003E0000101B1F5801F1BD3B1F5001F0CD34908E3
:1003F0005FEA30004FEA3C0C04F101044FEA44523A
:1004000012F5800F80F09A80BCF1004F08BF5FEAC0
:10041000500C50F1000041EB045141EA050130BDA0
:100420005FEA4C0C404141EB010111F4801FA4F143
:100430000104E9D191F0000F04BF01460020B1FA98
:1004400081F308BF2033A3F10B03B3F120020CDAD0
:100450000C3208DD02F1140CC2F10C0201FA0CF0AE
:1004600021FA02F10CE002F11402D8BFC2F1200C13
:1004700001FA02F120FA0CFCDCBF41EA0C019040C9
:10048000E41AA2BF01EB0451294330BD6FEA040412
:100490001F3C1CDA0C340EDC04F11404C4F12002FD
:1004A00020FA04F001FA02F340EA030021FA04F30F
:1004B00045EA030130BDC4F10C04C4F1200220FA66
:1004C00002F001FA04F340EA0300294630BD21FAA4
:1004D00004F0294630BD94F0000F83F4801306BF6A
:1004E00081F480110134013D4EE77FEA645C18BF5E
:1004F0007FEA655C29D094EA050F08BF90EA020FF5
:1005000005D054EA000C04BF1946104630BD91EAEC
:10051000030F1EBF0021002030BD5FEA545C05D1EF
:100520004000494128BF41F0004130BD14F580042E
:100530003CBF01F5801130BD01F0004545F0FE41A2
:1005400041F470014FF0000030BD7FEA645C1ABFD7
:10055000194610467FEA655C1CBF0B46024650EA0E
:10056000013406BF52EA033591EA030F41F400213A
:1005700030BD00BF90F0000F04BF0021704730B5C0
:100580004FF4806404F132044FF000054FF0000195
:1005900050E700BF90F0000F04BF0021704730B556
:1005A0004FF4806404F1320410F0004548BF40422B
:1005B0004FF000013EE700BF42004FEAE2014FEA80
:1005C00031014FEA02701FBF12F07F4393F07F4F5B
:1005D00081F06051704792F0000F14BF93F07F4F8D
:1005E000704730B54FF4607401F0004521F00041D0
:1005F00020E700BF50EA010208BF704730B54FF056
:1006000000050AE050EA010208BF704730B511F05A
:10061000004502D5404261EB41014FF4806404F192
:1006200032045FEA915C3FF4DCAE4FF003025FEA14
:10063000DC0C18BF03325FEADC0C18BF033202EB9C
:10064000DC02C2F1200300FA03FC20FA02F001FAF6
:1006500003FE40EA0E0021FA02F11444C1E600BF95
:1006600070B54FF0FF0C4CF4E06C1CEA11541DBF48
:100670001CEA135594EA0C0F95EA0C0F00F0DEF813
:100680002C4481EA030621EA4C5123EA4C5350EAF8
:10069000013518BF52EA033541F4801143F4801349
:1006A00038D0A0FB02CE4FF00005E1FB02E506F0DA
:1006B0000042E0FB03E54FF00006E1FB03569CF02F
:1006C000000F18BF4EF0010EA4F1FF04B6F5007F35
:1006D00064F5407404D25FEA4E0E6D4146EB0606A7
:1006E00042EAC62141EA55514FEAC52040EA5E5030
:1006F0004FEACE2EB4F1FD0C88BFBCF5E06F1ED8DA
:10070000BEF1004F08BF5FEA500E50F1000041EB10
:10071000045170BD06F0004646EA010140EA0200BD
:1007200081EA0301B4EB5C04C2BFD4EB0C0541EADF
:10073000045170BD41F480114FF0000E013C00F3F4
:10074000AB8014F1360FDEBF002001F0004170BD18
:10075000C4F10004203C35DA0C341BDC04F1140431
:10076000C4F1200500FA05F320FA04F001FA05F2BD
:1007700040EA020001F0004221F0004110EBD3708A
:1007800021FA04F642EB06015EEA430E08BF20EAB6
:10079000D37070BDC4F10C04C4F1200500FA04F359
:1007A00020FA05F001FA04F240EA020001F00041EB
:1007B00010EBD37041F100015EEA430E08BF20EA5E
:1007C000D37070BDC4F1200500FA05F24EEA020EA6
:1007D00020FA04F301FA05F243EA020321FA04F0D5
:1007E00001F0004121FA04F220EA020000EBD3708C
:1007F0005EEA430E08BF20EAD37070BD94F0000F8C
:100800000FD101F00046400041EB010111F4801FBF
:1008100008BF013CF7D041EA060195F0000F18BF70
:10082000704703F00046520043EB030313F4801FAC
:1008300008BF013DF7D043EA0603704794EA0C0F66
:100840000CEA135518BF95EA0C0F0CD050EA41067C
:1008500018BF52EA4306D1D181EA030101F00041F9
:100860004FF0000070BD50EA410606BF1046194621
:1008700052EA430619D094EA0C0F02D150EA01362D
:1008800013D195EA0C0F05D152EA03361CBF10466E
:1008900019460AD181EA030101F0004141F0FE410D
:1008A00041F470014FF0000070BD41F0FE4141F491
:1008B000780170BD70B54FF0FF0C4CF4E06C1CEA91
:1008C00011541DBF1CEA135594EA0C0F95EA0C0F46
:1008D00000F0A7F8A4EB050481EA030E52EA033501
:1008E0004FEA013100F088804FEA03334FF0805522
:1008F00045EA131343EA12634FEA022245EA11154F
:1009000045EA10654FEA00260EF000419D4208BFFF
:10091000964244F1FD0404F5407402D25B084FEAAC
:100920003202B61A65EB03055B084FEA32024FF458
:1009300080104FF4002CB6EB020E75EB030E22BFB5
:10094000B61A754640EA0C005B084FEA3202B6EB75
:10095000020E75EB030E22BFB61A754640EA5C0024
:100960005B084FEA3202B6EB020E75EB030E22BFB4
:10097000B61A754640EA9C005B084FEA3202B6EBB5
:10098000020E75EB030E22BFB61A754640EADC0074
:1009900055EA060E18D04FEA051545EA16754FEAD6
:1009A00006164FEAC30343EA52734FEAC2025FEAF4
:1009B0001C1CC0D111F4801F0BD141EA00014FF083
:1009C00000004FF0004CB6E711F4801F04BF014354
:1009D0000020B4F1FD0C88BFBCF5E06F3FF6AFAE70
:1009E000B5EB030C04BFB6EB020C5FEA500C50F100
:1009F000000041EB045170BD0EF0004E4EEA113183
:100A000014EB5C04C2BFD4EB0C0541EA045170BD89
:100A100041F480114FF0000E013C90E645EA060ECD
:100A20008DE60CEA135594EA0C0F08BF95EA0C0FFB
:100A30003FF43BAF94EA0C0F0AD150EA01347FF443
:100A400034AF95EA0C0F7FF425AF104619462CE71A
:100A500095EA0C0F06D152EA03353FF4FDAE10467D
:100A6000194622E750EA410618BF52EA43067FF4CE
:100A7000C5AE50EA41047FF40DAF52EA43057FF45E
:100A8000EBAE12E74FF0FF3C06E000BF4FF0010C69
:100A900002E000BF4FF0010C4DF804CD4FEA410CCD
:100AA0007FEA6C5C4FEA430C18BF7FEA6C5C1BD09A
:100AB00001B050EA410C0CBF52EA430C91EA030F1B
:100AC00002BF90EA020F0020704710F1000F91EA78
:100AD000030F58BF994208BF90422CBFD8176FEA46
:100AE000E37040F0010070474FEA410C7FEA6C5C14
:100AF00002D150EA013C07D14FEA430C7FEA6C5C1B
:100B0000D6D152EA033CD3D05DF8040B704700BF46
:100B10008446104662468C461946634600E000BF94
:100B200001B5FFF7B7FF002848BF10F1000F01BD66
:100B30004DF808EDFFF7F4FF0CBF012000205DF831
:100B400008FB00BF4DF808EDFFF7EAFF34BF0120B6
:100B500000205DF808FB00BF4DF808EDFFF7E0FF4F
:100B600094BF012000205DF808FB00BF4DF808EDA0
:100B7000FFF7CEFF94BF012000205DF808FB00BF07
:100B80004DF808EDFFF7C4FF34BF012000205DF8E9
:100B900008FB00BF4FEA410212F5001215D211D531
:100BA0006FF47873B3EB625212D94FEAC12343F06A
:100BB000004343EA505311F0004F23FA02F018BFEC
:100BC000404270474FF00000704750EA013005D1B5
:100BD00011F0004008BF6FF0004070474FF0000078
:100BE000704700BF4A0011D212F5001211D20DD584
:100BF0006FF47873B3EB62520ED44FEAC12343F023
:100C0000004343EA505323FA02F070474FF00000CC
:100C1000704750EA013002D14FF0FF3070474FF07B
:100C2000000070474FEA4102B2F1E04324BFB3F540
:100C3000001CDCF1FE5C0DD901F0004C4FEAC00253
:100C40004CEA5070B2F1004F40EB830008BF20F037
:100C50000100704711F0804F21D113F13872BCBFF1
:100C600001F00040704741F480114FEA5252C2F146
:100C70001802C2F1200C10FA0CF320FA02F018BF8F
:100C800040F001004FEAC1234FEAD32303FA0CFCE2
:100C900040EA0C0023FA02F34FEA4303CCE77FEA71
:100CA000625307D150EA01331EBF4FF0FE4040F4BB
:100CB0004000704701F0004040F0FE4040F400006A
:100CC000704700BF80F0004002E000BF81F00041AB
:100CD00042001FBF5FEA410392EA030F7FEA226CE2
:100CE0007FEA236C6AD04FEA1262D2EB1363C1BF72
:100CF000D218414048404140B8BF5B42192B88BFE1
:100D0000704710F0004F40F4000020F07F4018BF03
:100D1000404211F0004F41F4000121F07F4118BF23
:100D2000494292EA030F3FD0A2F1010241FA03FCCB
:100D300010EB0C00C3F1200301FA03F100F00043B3
:100D400002D5494260EB4000B0F5000F13D3B0F17B
:100D5000807F06D340084FEA310102F10102FE2AEA
:100D600051D2B1F1004F40EBC25008BF20F001005A
:100D700040EA03007047490040EB000010F4000F08
:100D8000A2F10102EDD1B0FA80FCACF1080CB2EB9B
:100D90000C0200FA0CF0AABF00EBC25052421843FA
:100DA000BCBFD0401843704792F0000F81F400019F
:100DB00006BF80F400000132013BB5E74FEA410372
:100DC0007FEA226C18BF7FEA236C21D092EA030FDE
:100DD00004D092F0000F08BF0846704790EA010F58
:100DE0001CBF0020704712F07F4F04D1400028BF85
:100DF00040F00040704712F100723CBF00F5000067
:100E0000704700F0004343F0FE4040F4000070479C
:100E10007FEA226216BF08467FEA23630146420248
:100E200006BF5FEA412390EA010F40F4800070475B
:100E30004FF0000304E000BF10F0004348BF404201
:100E40005FEA000C08BF704743F0964301464FF03D
:100E500000001CE050EA010208BF70474FF0000399
:100E60000AE000BF50EA010208BF704711F00043DA
:100E700002D5404261EB41015FEA010C02BF8446AA
:100E80000146002043F0B64308BFA3F18053A3F509
:100E90000003BCFA8CF2083AA3EBC25310DB01FA50
:100EA00002FC634400FA02FCC2F12002BCF1004FD4
:100EB00020FA02F243EB020008BF20F00100704765
:100EC00002F1200201FA02FCC2F1200250EA4C00B9
:100ED00021FA02F243EB020008BF20EADC707047FF
:100EE0007BB972B90029BEBF00204FF0004106E077
:100EF00008BF00281CBF6FF000414FF0FF3000F02A
:100F00008DB882B0EC462DE9005000F057F8DDF8BE
:100F100004E002B00CBC704753B94AB9002908BFBD
:100F200000281CBF4FF0FF314FF0FF3000F076B8C3
:100F300082B0EC462DE9005000F058F8DDF804E0EE
:100F400002B00CBC704700BF430803F05533C31A0E
:100F5000980800F0333003F03333184400EB1010DE
:100F600000F00F3000EB002000EB0040000E704757
:100F7000D0B5FFF721FB00220E4B06460F46FFF7C8
:100F80006FFBFFF72FFE0446FFF7F4FA00220A4B2F
:100F9000FFF766FB02460B4630463946FFF7ACF9D1
:100FA000FFF720FE2346002242EA000210461946BF
:100FB000D0BD00BF0000F03D0000F0412DE9F04140
:100FC000069C154606460F46984600F029F805FB94
:100FD00001F300FB0838A5FB0023B21A434467EB7A
:100FE0000303C4E90023BDE8F08100BF2DE9F0410F
:100FF000069C904606460F461D4600F05FF900FB32
:1010000005F5A0FB082308FB0155B21A2B4467EB3A
:101010000303C4E90023BDE8F08100BF704700BFAF
:1010200000292DE9F043C0F2A6800026002BC0F273
:101030009C80884694469E46154604460F46002BE3
:101040003DD18A4259D9B2FA82F33BB1C3F12002B1
:101050009F4020FA02F29D4017439C40290C220C2D
:10106000B7FBF1FEA8B201FB1E7742EA074700FB7F
:101070000EF3BB420AD97F190EF1FF3280F00581D1
:10108000BB4240F20281AEF1020E2F44FF1AA4B21D
:10109000B7FBF1F301FB137744EA074700FB03F0CA
:1010A000B84208D97F1903F1FF3280F0F080B842CE
:1010B00040F2ED80023B43EA0E43002203E08B4204
:1010C0000FD900221346341C18BF012460424FF090
:1010D000000565EB45015840514000196941BDE8E4
:1010E000F083B3FA83F2002A40F086808B4202D369
:1010F000844500F2DB800123E5E712B90123B3FB4D
:10110000F2F5B5FA85F000283BD1781B4FEA154E71
:101110001FFA85FC0122B0FBFEF8210C0EFB18071C
:1011200041EA07470CFB08F3BB4207D97F1908F1D6
:10113000FF3102D2BB4200F2BD808846FF1AA4B242
:10114000B7FBFEF30EFB137744EA07470CFB03FCE7
:10115000BC4507D97F1903F1FF3102D2BC4500F22B
:10116000A7800B4643EA0843ADE752426FEA060602
:1011700063EB43035DE7404261EB41014FF0FF3613
:1011800054E7C0F1200224FA02F107FA00F3854087
:101190004FEA154ED7401943B7FBFEF20B0C0EFB7E
:1011A00012771FFA85FC43EA07430CFB02F79F42C4
:1011B00004FA00F407D95B1902F1FF3074D29F42A0
:1011C00072D9023A2B44DF1B89B2B7FBFEF80EFB43
:1011D000187341EA03430CFB08F79F4208D95B19D7
:1011E00008F1FF315CD29F425AD9A8F102082B4482
:1011F000D81B48EA02428EE7C2F120032CFA03F121
:101200000EFA02FE20FA03F741EA0E0E08FA02F087
:1012100028FA03F14FEA1E453843B1FBF5F8030CF9
:1012200005FB18111FFA8EF743EA014107FB08F38B
:101230008B420CFA02FC09D911EB0E0108F1FF39BF
:1012400030D28B422ED9A8F102087144C91A80B25B
:10125000B1FBF5F305FB131140EA014107FB03F76E
:101260008F4208D911EB0E0103F1FF3016D28F42E5
:1012700014D9023B714443EA0843C91BA3FB0C8900
:10128000494509D305D000221DE79646FEE61346E0
:1012900011E794404445F6D2013BF4E70346EAE700
:1012A0008846A5E7C846D1E702468CE713460AE719
:1012B000023B57E7A8F102082F443FE72DE9F04130
:1012C000002B44D18A42154604464FD9B2FA82F720
:1012D0000E464FB1C7F12003B94020FA03F602FAD7
:1012E00007F50E4300FA07F44FEA154E230CB6FB40
:1012F000FEF0AFB20EFB106143EA014307FB00F1C1
:10130000994209D95B1900F1FF3280F0EC809942D3
:1013100040F2E98002382B445A1AA4B2B2FBFEF321
:101320000EFB132244EA024207FB03F7974208D957
:10133000521903F1FF3180F0D880974240F2D580F6
:10134000023B43EA004000263146BDE8F0818B4273
:1013500047D8B3FA83F6002E48D18B4202D382429B
:1013600000F2CD8001203146BDE8F08112B901259F
:10137000B5FBF2F5B5FA85F8B8F1000F77D14A1B45
:101380004FEA154EAFB20126B2FBFEF0230C0EFB66
:10139000102143EA014107FB00F38B4207D94919A9
:1013A00000F1FF3202D28B4200F2BA801046C91A15
:1013B000A4B2B1FBFEF30EFB131144EA014407FB98
:1013C00003F7A74208D9641903F1FF3280F08F8038
:1013D000A74240F28C80023B43EA00403146BDE820
:1013E000F081002630463146BDE8F081C6F1200488
:1013F00022FA04F5B3402B4320FA04FC01FA06F765
:1014000021FA04F54FEA134E4CEA0707B5FBFEF844
:10141000390C0EFB18551FFA83FC41EA05450CFBFD
:1014200008F1A94202FA06F204D9ED1808F1FF34D6
:1014300067D3A0466D1ABFB2B5FBFEF40EFB145580
:1014400047EA05410CFB04FC8C4504D9C91804F19A
:10145000FF355CD32C4644EA0844CCEB0101A4FBE5
:101460000223994248D344D0204600266CE7C8F1B5
:10147000200401FA08F305FA08F520FA04F7E14020
:101480004FEA154E1F43B1FBFEF63A0C0EFB161148
:101490001FFA85FC42EA01430CFB06F29A4200FA6D
:1014A00008F407D95B1906F1FF3137D29A4235D9D2
:1014B000023E2B449B1ABFB2B3FBFEF00EFB10336F
:1014C00047EA03430CFB00F1994207D95B1900F18D
:1014D000FF3221D299421FD902382B445A1A40EACE
:1014E0000646674650E7104616E70B4629E71346BF
:1014F00072E7B0409042B7D2601E002624E7304623
:1015000022E7A94295D9A8F102081D4492E78C452B
:10151000A0D9023C19449EE71046DFE70E46C9E712
:101520000238294443E700BF02E000F000F8FEE77C
:1015300072B6384880F30888374880F309883748FE
:101540004EF60851CEF20001086040F20000CCF2E5
:1015500000004EF63471CEF200010860BFF34F8FE9
:10156000BFF36F8F40F20000C0F2F0004EF68851DA
:10157000CEF200010860BFF34F8FBFF36F8F4FF0C3
:101580000000E1EE100A4EF63C71CEF20001086058
:10159000062080F31488BFF36F8FF7F04BFBF5F054
:1015A000D7FB1F481F491B4A91423CBF41F8040B1F
:1015B000FAE71D49184A91423CBF41F8040BFAE78B
:1015C0001A491B4A1B4B9A423EBF51F8040B42F882
:1015D000040BF8E700201849184A91423CBF41F833
:1015E000040BFAE7F7F066FBF5F006FD144C154D19
:1015F000AC4203DA54F8041B8847F9E701F07EF99E
:10160000114C124DAC4203DA54F8041B8847F9E739
:10161000F7F04EBB00040020002400200000020868
:101620005555555500000020000400203084140852
:10163000002400202029002020290020AC2F012098
:10164000A0020208F0020208F0020208F0020208FA
:101650002DE9F04F2DED108AC1F80CD0D0F80CD048
:10166000BDEC108ABDE8F08FF4F0DCFE002383F3BC
:1016700011882846A0470020F5F000F9F4F0CCFED0
:10168000F4F0CCFDF4F0CEFE00DFFEE710F8012B05
:1016900011F8013B012A28BF9A42F7D0D01A7047AF
:1016A000002070472DE9F041C388012B92B005D08E
:1016B0009C0603D4012012B0BDE8F0810D4604461B
:1016C0005EF06AFB5EF0E2F940BB794E96F9443079
:1016D000A3B1D6F8082BB6F94630B2F90A1003F1D7
:1016E0000A02914203DD40F28D32934206DC20462D
:1016F0002A4620216F4B89F0F5F915E0B3886C4A32
:10170000A3F57A739BB241F658318B4210D920462B
:101710002A462021684B89F0E5F905E020462A4653
:101720002021664B89F0DEF9002012B0BDE8F0817F
:1017300043F2084392ED1E7AD358D3ED097AB4EE02
:10174000E77AF1EE10FA06DD20462A4620215C4BAE
:1017500089F0C8F9E8E792ED1F7AD3ED0A7AB4EE82
:10176000E77AF1EE10FAEFDC42F22143D356FBB9EF
:101770004F4F384614F0ACFF68B141F67853FB5C2C
:10178000DA0747D44F4804A905AA49F01FF8BDF865
:101790001030002B4DD142F6A563454FF35CDB06BC
:1017A00012D520462A462021474B89F09BF9BBE7FA
:1017B000464846F0A5FF0028DAD120462A462021D7
:1017C000434B89F08FF9AFE707F514706EF016FF01
:1017D000002835D10DF1140843F20C433D49F0586F
:1017E000334E424632237AF0FDFC50B143F20843B7
:1017F0003949F0584246322378F0FAF800287FF44D
:101800005AAFCDF8008020462A462021334B89F07C
:1018100069F989E72D48BF8B192146F0E5FE3FB2F3
:101820008742AFDD20462A4620212D4B89F05AF908
:101830007AE720462A4620212A4B89F053F973E79C
:1018400007F514706EF0DAFE01282AD943F24953E5
:101850000DF11408FB5C002BBED007F51470424656
:1018600004A96EF013FF0028B6D09DED057ADFEDD8
:101870001E7AB4EEE77AF1EE10FAADD8DDED047A17
:10188000FDEEE77A17EE100ACDED007AFEF794FE32
:101890002A46CDE90201154B2046202189F022F984
:1018A00042E720462A462021114B89F01BF93BE7ED
:1018B00038290020883212089C321208E4311208BC
:1018C000AC321208145F002020321208F0430020CE
:1018D000C03212086C3212088432120870321208B8
:1018E000D4321208043212089A99193F5032120861
:1018F000383212082DE9F04782B00F46904606466E
:101900001BF0B6FA0368D3F8AC3005469847044696
:10191000002800F08D8025F031F890F85430C3EBAA
:10192000031300EB031090F86540002C76D0DFF82D
:10193000449244F2245242F64C6359F8020019F8DA
:1019400003A00368A8F101015B69B1FA81F14909BB
:101950009847044600287CD042F6AC6359F803301F
:101960005B7903F0040303F0FF01002B6AD042F619
:101970004A6319F8033003F01403142B78D05EF097
:101980000BFA1F215EF070F8002800F087805EF0EF
:1019900003FA1F215EF068F818B1734B1B78002B17
:1019A0005ED1F388002B3FD0012B02D09BB2DC0626
:1019B00020D5D5ED5B7A95ED5A0A20EE270AFAF08C
:1019C000F9FBDFED6A7AB9F90430DFED696A694A3B
:1019D00007EE103A20EE270AB8EEC77A60EE267AB4
:1019E000F4EEC77AF1EE10FA00F3B680F388012B1B
:1019F00057D09BB2980643D4590657D45E4B5F4AE2
:101A00001B68586C03685B69934240F099803046CC
:101A1000414602B0BDE8F04789F0CEBE30463A46B6
:101A20002146574B89F05EF8204602B0BDE8F087AA
:101A300030463A462146534B89F054F8204602B0CE
:101A4000BDE8F08730463A464F4B0C4689F04AF8DD
:101A5000EAE730463A4621464C4B89F043F8E3E743
:101A60005BF0CAFC02214A4A53F0C4F90024DBE7C8
:101A700030463A460021474B89F034F80024D3E73A
:101A800042F6A56219F80220D206B5D530463A468C
:101A90002021414B89F026F80024C5E7324B18700D
:101AA0007FE742F6A563D35CDB06EFD499F94420C7
:101AB000304B8AB1D3F8082BB3F94630B2F906207F
:101AC0009A4209DA354B009330463A464021344B6E
:101AD00089F008F80024A7E7B8F1010F03D10AF054
:101AE000EF03042B8AD0D9F8083B224CB3F9083015
:101AF00000EE103A2046B8EEC00A00F0E3FFB5EE63
:101B0000C00AF1EE10FA09DD244B009330463A4644
:101B10004021244B88F0E6FF002485E744F224535B
:101B2000E05803681B69984718B9BAF10B0F7FF4A6
:101B300065AFD9F8083BB3F90830002BE4DC5DE76A
:101B4000984701287FF463AF30463A460021164B90
:101B500088F0C8FF002467E730463A461021134B4F
:101B600088F0C0FF00245FE7F9810020E02E654285
:101B70000000C8423829002030290020A1160208A0
:101B80004433120830331208F8321208583312085E
:101B9000B43312086C33120820321208983312083A
:101BA000D43312088C331208A43312088433120879
:101BB0002DE9F04142F6AC63364EF3585B7913F0F1
:101BC000010402D00120BDE8F0810F4605465EF019
:101BD000E3F820215DF048FF70B15EF0DDF81F21D1
:101BE0005DF042FF40B128463A4621462A4B88F034
:101BF00079FF2046BDE8F08142F64A63F35C03F0CA
:101C00001403142B37D0B5F90630002BDAD039463F
:101C1000284689F0A7FD394680462846FFF742FD51
:101C200042F6AC63F3585B7903F0040303F0FF045E
:101C300043B300EA0800C4B2EB88012B01D05B0675
:101C400012D596F94430134A73B1D2F8081BB2F991
:101C50004630B1F906209A4206DA284640213A4633
:101C60000E4B88F03FFF00242846394689F05EFC81
:101C70002040BDE8F081284600213A46084B88F014
:101C800031FFC0E7284621463A46064B88F02AFF36
:101C9000D2E700BF38290020E833120818331208B1
:101CA0006C331208F83212082DE9F041474A1378D4
:101CB0000133DBB21D2B06462FD900231370336886
:101CC000434A5B6893424FF001072ED1414D42F6E3
:101CD000AC63EB58587910F001040AD0012042F6A9
:101CE00048633D49EA5C887160F30412EA54BDE838
:101CF000F0815EF051F820215DF0B6FED0B15EF0CB
:101D00004BF81F215DF0B0FEA0B130463A462146A7
:101D1000324B88F0E7FE2046E1E7137033682C4A27
:101D20005B6893424FF00007D0D030463946294DCA
:101D30009847D4E742F64A63EB5C03F01403142B94
:101D400036D0B6F90630002BC8D03946304689F077
:101D500009FD394680463046FFF7A4FC42F6AC63E5
:101D6000EB585B7903F0040303F0FF043BB300EA94
:101D70000800C4B2F388012B01D05B0612D595F997
:101D80004430144A73B1D2F8081BB2F94630B1F9A5
:101D900006209A4206DA304640213A46104B88F037
:101DA000A1FE00243046394689F0C0FB204096E76A
:101DB000304600213A460B4B88F094FEC1E730468E
:101DC00021463A46084B88F08DFED3E700240020D8
:101DD000B11B02083829002068790020E833120876
:101DE000183312086C331208F83212082DE9F0414A
:101DF0000368444A5B68934207460E4632D1424D1F
:101E000042F6AC63EB58587910F001040FD0012072
:101E100042F648613D4A6B5C907160F3041303F035
:101E200010026B5402F0FF00AAB9BDE8F0815DF02A
:101E3000B3FF20215DF018FEC0B15DF0ADFF1F21A2
:101E40005DF012FE90B1384621460122304B88F0F9
:101E500049FE2046DCE7384632460121BDE8F04124
:101E6000FFF748BD0121284D9847D1E742F64A6364
:101E7000EB5C03F01403142B36D0B7F90630002BBB
:101E8000C5D00121384689F06DFC012180463846D5
:101E9000FFF708FC42F6AC63EB585B7903F00403F0
:101EA00003F0FF043BB300EA0800C4B2FB88012B37
:101EB00001D05B0612D595F94430134A73B1D2F8BC
:101EC000081BB2F94630B1F906209A4206DA3846C4
:101ED000402101220F4B88F005FE002438460121E5
:101EE00089F024FB204093E73846002101220A4B69
:101EF00088F0F8FDC1E7384621460122074B88F0FB
:101F0000F1FDD3E7B11B02083829002068790020D1
:101F1000E8331208183312086C331208F83212082A
:101F200070B505460E4688F035FE28B1EB88012BCA
:101F300003D09A0701D470BD70BD14487FF07EF9BC
:101F4000C0F30024FCB983051DD510487FF020F9AB
:101F50000F4A9FED107A43F29C33D35807EE903A24
:101F6000F8EEE77A30EE670AF0EEC07AF4EEC77A60
:101F7000F1EE10FA07DD284632460221064B88F0C2
:101F8000B1FD204670BD012070BD00BF0C5D00207A
:101F9000382900200000C84204341208F8B505466C
:101FA0000F4688F0BDFEEB88012B044601D05B078D
:101FB00005D524F0E3FC24F04BFB064608B120468F
:101FC000F8BD28463A460421024B344688F08AFD83
:101FD0002046F8BD18341208F8B505460E4688F0BC
:101FE0009BFFEB88012B044601D0DB0605D5084892
:101FF0007FF024F910F0010701D02046F8BD2846F3
:1020000032461021034B3C4688F06CFD2046F8BD5B
:102010000C5D00203034120838B504460D4689F0B6
:10202000A9F828B1E388012B03D01B0601D438BDE1
:1020300038BD094A43F29133D35C2BB92046294677
:10204000BDE8384089F022B920462A468021034B5A
:1020500088F048FD002038BD38290020443412089B
:102060002DE9F041114C84B0D4F8002BD4F80C3B8E
:10207000D4F8085BD4F8047B00926A460393804648
:102080000E460295019789F0CFFB31460546404642
:1020900088F0FAFE42F648622840A35C60F3C3036E
:1020A000C3F3C000A35404B0BDE8F0813829002078
:1020B0002DE9F04F614E00238FB08846F37107463B
:1020C0001AF0D6FE0368D3F8AC30054698470446AC
:1020D00078B344F22453DFF86C9159F80300036895
:1020E000DB6898478246564871F068FE10F0060F8C
:1020F00014BF4FF0010B4FF0000BBAF1000F02D1EB
:10210000BBF1000F54D04F4813F0FCFED8B92B6838
:1021100028465B6A984700286BD0009042463846B4
:102120000021494B88F0DEFC002420460FB0BDE8BA
:10213000F08F384642462146444B88F0D3FC204677
:102140000FB0BDE8F08F284604A91AF09DFD18B124
:102150009DF811305A065ED400230B930C930D9317
:1021600009930A932B680DF12C0A08A909AA019179
:102170000292CDF800A0D3F8C8C005A906AA07AB03
:102180002846E047504636F0A7FAD9ED197AB4EE62
:10219000E70AF1EE10FA24DA05F5AA71294805F0EC
:1021A00081FA002841D1FB88012B07D01B0705D4F9
:1021B00001232046F3710FB0BDE8F08F99F85C3D24
:1021C000B9F92A20742101FB0399B9F8143C934210
:1021D00019DC3846414688F0F7FC0028E8D104466F
:1021E000A3E7384642460021194B88F07BFC0024C7
:1021F0009BE7BAF1000F16D1164B1748BBF1000F41
:1022000008BF184689E7384642460821134B88F034
:1022100069FC002489E7384642460021104B88F0CB
:1022200061FC002481E70B4877E7384642460021ED
:102230000C4B88F057FC002477E700BF687900203A
:10224000185E00203829002040A1120830331208FF
:10225000903412085834120864341208BC3412083E
:1022600080341208A8341208014871F001BE00BF82
:10227000185E002042F6486230B4835CC3F3401518
:102280008D4203D061F34513835409B930BC7047C4
:102290000F2130BC03F0BEB838B542F6486304469F
:1022A000C35CC3F341038B4217D00D4609B3012928
:1022B00014D0012100F0D8FA20461D2103F0AAF81D
:1022C00004F51350103006210F4A52F093FD42F6E8
:1022D0004863E25C65F34202E25438BD1A2103F020
:1022E00099F804F5135010300621084A52F082FD87
:1022F000EDE71B2103F08EF804F513501030062192
:10230000034A52F077FDE2E724351208143512082B
:102310000435120842F6A56238B5835C0C4603F01A
:102320000101A14208D064F300038354DB0704D504
:1023300006F0B2FC024B9C7238BD06F039FDF9E79D
:102340006879002042F6A563C25C61F34102C25481
:10235000704700BF10B504465DF01EFD20215DF002
:1023600083FB04F5395300309A7A18BF012060F3DB
:1023700082029A7210BD00BF87F0F0B866F056BCBA
:1023800071F07AB814F080B904F06EBE6AF09AB9B0
:1023900013F040B812F0D8BF12F080BF46F0B6BDBF
:1023A0002FF02CBA49F094BE7EF012BD60F01AB93D
:1023B0005BF082B901F01EBF5BF05CB912F05EBA4F
:1023C00007F038BB06F014BF06F002B93CF024BA9F
:1023D00012F0FEBC1DF0FAB869F064BA71F0F2BBFD
:1023E00010F072BE00F074BC12F0ACBC6AF0D0B950
:1023F00087F0E0BB6EF0BAB813F046B803F03ABE0F
:1024000012F026BC12F0AEBB5DF098BC41F0BABD34
:1024100010B5044643F080F8074B084A1A6020467E
:1024200013F0C4FD04F52460054930220823BDE8FB
:10243000104046F039BB00BF14240020C03E1308F2
:10244000A837120810B5044600F5246046F08EFC4B
:1024500004F6A42304F54F541B68236110BD00BF8C
:1024600010B5044607F0D6F8204613F0F1F92046DF
:10247000BDE8104004F090BF10B50121044613F0F0
:1024800021FA00B910BD2046BDE8104002F0ECBEB4
:1024900010B5044606F014FD204606F04DFE204619
:1024A00006F062FF2046BDE8104014F019B900BFE5
:1024B00010B5044612F0A8FE2046102113F002FACF
:1024C00000B910BD2046BDE8104003F08BB900BF35
:1024D00010B512F087FD5DF05FFC0368BDE81040A9
:1024E0005B681847F8B500F688360546304626F092
:1024F00063F800240F4F05E0D2F8D02B57F82300E3
:1025000082420DD1304624F049FCE3B203EB430292
:10251000834205EB820204F101040649ECD3F8BDC5
:1025200041F8232005F550503C30BDE8F8407EF0DE
:10253000E1BB00BF2029002010B50121044613F0A3
:10254000C1F948B92046802113F0BCF968B920468A
:10255000BDE8104003F062B8204602F009FF2046B3
:10256000802113F0AFF90028F1D020464FF400216C
:1025700013F0A8F90028EAD104F531604BF072FDA0
:102580002046BDE8104003F049B800BF38B54FF60B
:10259000FF71044613F096F900283DD104F50F5061
:1025A00042F6AC652C30FFF77FFB63595B79DB07A4
:1025B00018D404F5015020301BF042F82046FFF7F4
:1025C000C9FE605994F88C12036894F85E201B6968
:1025D0009847D4F8083B6059B3F90A10B3F90E20B4
:1025E00083F064FB5DF054FD204614F063F842F67E
:1025F000486343F63571E35C0B4ADB43C3F3C01316
:1026000004F5135063541030537152F07DFC204692
:10261000BDE8384012F0DABF42F648632046E2587F
:10262000072102F025FFB9E76879002038B50221BB
:10263000044613F047F9002870D120464FF40031CA
:1026400013F040F9002865D12046402113F03AF9F3
:1026500000284ED120464FF4806113F033F9002852
:1026600042D12046202113F02DF980BB2046802145
:1026700013F028F9E0B104F531604BF041FF20463A
:10268000102113F01FF900B938BD43F2084304F5D7
:102690003165E05874F0DEFF284604F514714FF000
:1026A0005DF9284604F5A271BDE838404FF0ECB85A
:1026B00020464FF4802113F005F90028DBD1204695
:1026C0004FF4002113F0FEF80028D4D1D7E744F2EC
:1026D0002453E0580368DB68984760B343F20C4327
:1026E000E05878F00BFEC1E704F531604BF0E2FAF8
:1026F000B7E704F5316528464BF06EFA43F26053B4
:1027000004F55551E3562031002BA3D028464BF059
:102710006BFB9FE7204602F03FFE95E72046012134
:1027200013F0D0F8002888D1204602F09DFD204605
:1027300002F01EFE81E720460EF032F90028CDD1CE
:1027400094E700BFFFF772BFF8B500F5075300F537
:102750003A551A69EA6300F507531C3300F53B56F6
:102760001B68336042F278070446C05900F58C407C
:10277000503032F03BFCBDEEC00A42F6C46210EEAF
:10278000101AA150EA6BB2603268F26020464FF630
:10279000FF7113F097F800B9F8BDE25920460921FE
:1027A000BDE8F84002F03ABE42F6486300F53952FF
:1027B000C35C13F0060302F1080249D042F64961F6
:1027C000415CC90744D510B451786FF300015170D2
:1027D000022BD0F8043BD0F8004BB3F9083007EED9
:1027E000903AB4F9083007EE103A32D000F53B5277
:1027F000F8EEE77AD2ED035A92ED026AB8EEC77AA4
:1028000065EEE76A66EE277A00F50752E7EE257A6D
:10281000E7EE066A92ED077A92ED046A27EE877A70
:10282000A6EE867ABDEEC77A17EE103A238192EDB6
:10283000046A92ED077AD0F8042B67EE867AE6EE0A
:10284000C77AFDEEE77A17EE903A13815DF8044BF4
:10285000704700F53A5300F53B52F8EEE77AD2EDB7
:10286000005A93ED0F6AC9E710B504462DED028BAF
:1028700071B942F64863C35C03F00603042B02D02F
:10288000BDEC028B10BD12F069FAB0F57A7FF7D378
:10289000204612F081FA42F6C46240F2E631A358B3
:1028A0001B1A03F2F3138B42EAD900F58C4311494A
:1028B000A050503381FB0312DB17C3EB621307EE0A
:1028C000103ADFED0D7AB8EEC78A28EE278AB0EE0F
:1028D000480AF9F0C3FA04F53B5383ED020AB0EE5F
:1028E000480AF9F09DFB04F53B5484ED030ABDEC66
:1028F000028B10BD1F85EB5135FA8E3C38B5054A69
:10290000054B146825680A462D6801462046A847ED
:10291000002038BD302900203829002070B500F58E
:102920003B550446143528461DF082FA94F92C30A4
:1029300003B970BD42F6AC6304F65476E058283013
:1029400051F05EFCDFED1C0A90ED000AB7EE001AB4
:1029500032F0B2FB94F9B23F012B08BF86ED180AA2
:10296000002128461DF01AF9DFED147A9FED147A44
:1029700004F5A45320EE270AD3ED027AA7EE870AC6
:10298000304683ED020A23F03FFC20464FF400510D
:1029900012F098FF0028CCD004F50150203016F03A
:1029A0004FF90028C5D104F5316000220023BDE8AD
:1029B00070404EF00FBC00BF00000000CDCCCC3DFD
:1029C0006666663F10B5044600F5A55010302FF03E
:1029D000BDF943F20843E0580368DB6A9847204694
:1029E00011F0DAFE04F50150012120301AF0DCF874
:1029F000204606F031FD204605F0CCFE204607F0CB
:102A000001F9204604F0CAFE204606F0C9FF04F58D
:102A100052500C305FF0ECFD20464FF6FF7112F083
:102A200051FF00B910BD2046BDE8104002F086BD40
:102A300090ED230A704700BFD0EDA16AF5EEC06AA1
:102A4000F1EE10FA07EE101A2BD9F7EE007AF4EE39
:102A5000E76AF1EE10FA1ADDF7EE006ADFED147A9C
:102A6000C0EDA16A9FED130AD0ED1D5AB8EEC77AEA
:102A700087EE007A27EE076A67EE277A26EE077A56
:102A8000E7EE267A67EE807A27EEA50A7047B6EE63
:102A9000006AF4EEC66AF1EE10FADDD477EEE67A5B
:102AA000E0E7B8EEC70AD0ED1D7A20EE270A70479E
:102AB0000000000000A08C4543F20C43C05877F0A2
:102AC000FFBD00BF70B52DED048B42F6A562815CA1
:102AD00011F0010404D09FED320ABDEC048B70BDEF
:102AE000054610EE106A12F08BFB9FED2E9AB5F999
:102AF0004830DFED2B0A07EE900A08EE103AB0EEF0
:102B0000491A00EE106AF8EEE79A32F0D5FAB8EEFC
:102B1000C88A2146B5F948004FF4C872F0EE408AE1
:102B200032F0BEFA39EEC80AA5F84800B4EEE80A59
:102B3000F1EE10FA15DDB5F8A83943BBB5F9403010
:102B4000002BB8BF5B429BB207EE903A78EEC08A8A
:102B5000F8EEE77A67EEA87ABDEC048B87EE800A80
:102B600070BD38EE298AB4EEE88AF1EE10FAB2D5DB
:102B7000B5F9403007EE903A78EEC88AB8EEE77AB9
:102B800039EE488A67EE287A87EE880AA5E71BB2F5
:102B9000002BB8BF5B429BB207EE903AD6E700BF6E
:102BA0000000000000007A4408B542F6AC630C4A0D
:102BB000C05803681B6893420FD190ED230AF6EECC
:102BC000007A20EE270ADFED077AB4EE670AF1EE0D
:102BD00010FA48BFB0EE670A08BD9847EFE700BF9C
:102BE000312A02080000000000B543F20C4283B015
:102BF000825800F54F5302A900F5545021ED010A07
:102C000093ED041A92ED080AD2ED350A2C3071F0DA
:102C10009FFC9DED010A03B05DF804FB10B52DED9E
:102C2000028B43F20843DFED130AC358B7EE001AD4
:102C300093ED240A044632F03FFA42F6AC630E4AA2
:102C4000E05803681B6843F20C419342B0EE408A9F
:102C500064580CD190ED230A38EE408A9FED070AA4
:102C600028EE008A84ED128ABDEC028B10BD9847D5
:102C7000F2E700BF00000000312A020800007A4499
:102C800000F507531846D3ED076AD2ED007AD0ED70
:102C9000045A91ED006A26EEE77A65EEA77AA6EE71
:102CA000257AE6EE267A81ED007AC2ED007A704749
:102CB000B0F8A8392BB118B20028B8BF404280B292
:102CC0007047B0F940000028B8BF404280B270475A
:102CD00038B542F6AC6543595B79DA0704D542F65C
:102CE0004863C35C1B0600D538BD44F22453044638
:102CF000C05803681B6998470028F5D142F64C6319
:102D0000E35C0B2B3DD043F20C439FED227AE3585A
:102D1000D3ED457AF0EEE77AF4EEC77AF1EE10FAE9
:102D2000E2D56059283051F06BFADFED1B0A90EDC7
:102D3000000AB7EE001A32F0BFF9B5EEC00AF1EEA4
:102D400010FAD1DD04F54F5014307EF025FABDEEB7
:102D5000C00A10EE103A002BB8BF5B423B2BC3DC1D
:102D600042F2700340F2E632E35803F2F313934267
:102D7000BAD842F27403E35803F2F313934201D931
:102D800038BD38BD60599FED050ABDE8384082F076
:102D9000DFBF00BF00000034000000000AD7233C62
:102DA00030B52DED048B83B0044654480191F0EE0C
:102DB000408AB0EE609A12F067FA48B9DDED017A08
:102DC000B8EEE78AB0EE480A03B0BDEC048B30BD24
:102DD00004F54F5014307EF0DBF9F0EE409A8DF0A0
:102DE0003DF847490B6843F29832C31A0125A554B0
:102DF000B3F57A7F41F67A5304F54E52E35E07EE5F
:102E0000103A4CD8019BD2ED057A08601432002BA1
:102E1000B8EEC77A50DB55D042F6AC63E3581B7965
:102E20001D074FD4DDED016AB8EEE68AE8EE097AB7
:102E3000C2ED007A77EE677A41F68C51FDEEE77AC3
:102E400017EE903AC72B42DD63560133012BB8BF12
:102E50000123DBB263545BB2002BB8BF5B42022B91
:102E6000B0DD41F68C53002182ED007AE154B0EEE2
:102E7000470A37EE407A78EEE98A94ED090ADFEDE9
:102E8000210A9FED211A37EE687A27EE000A32F008
:102E900013F938EE000A03B0BDEC048B30BDB8EE78
:102EA000C77A019B086077EE287A143277EEE97AC8
:102EB000002BC2ED007AAEDA42F6AC63E3581B7920
:102EC0005B07AFD5DDED016AB8EEE68AB2E7C7333E
:102ED00008DA6356013B581CA8BF4FF0FF33DBB242
:102EE0006354B8E70020605441F67A5392ED007ABB
:102EF000E35E00EE103AB8EEC00ABAE738290020C7
:102F00002C290020000016C300001643036800218E
:102F10001B681847FFF756BD05F054BF09F0F0BD18
:102F200009F08ABC08F0D2BB2DE9F843244B0360BA
:102F3000804600F5555020305EF078FF42F2D043D5
:102F4000204A48F8032008F5135608F534551E4F5B
:102F500006F1F009303506F68816A6F5DC76D6F8C7
:102F60002801376008B11DF021FDD6F8200108B115
:102F70001DF01CFD06F58C74AC4208D00C3C636857
:102F80001846002BF8D01DF011FDAC42F6D1B1452A
:102F9000A5F5DC75E1D142F2685242F2D04358F80F
:102FA00002000A4A48F8032008B11DF0FFFCD8F8D7
:102FB0008C0908B11DF0FAFC4046BDE8F88300BF5B
:102FC000703B1208AC3B1208F4361308BC361308E9
:102FD0002DE9F04F2DED028BE14B044689B040F80E
:102FE000883B02F0D5FCDF4B0593049404AB93E8D7
:102FF000060004F5246045F019FD04F52B603BF054
:10300000DDFB04F1540104F5316048F061FD04F684
:10301000883023F03FFE062304F14A0284F8383E4C
:10302000C4F8342E04F63C601AF046FE04F65470E0
:1030300020F080FE04F5D55604F5A55004F511588E
:103040001836103008F11C082DF082F83046414641
:10305000192244F055FD04F5EC5304F5EB5141F60B
:10306000785000222250CA6143F8042B43F8042B05
:1030700043F8042B04F5EC501A6051F073F804F592
:10308000015704F5EC50203704F5EF5A103004F5E1
:10309000F8595EF063FB09F108093246394650469B
:1030A00038F0A6FF04F50F553246394648463AF047
:1030B000C9F82C35012351464A46384618F08CFF92
:1030C00042F2EC36284687F0FBFC0435A64BA351B0
:1030D000284642F09BF9002800F01C8304F51050AC
:1030E0001C3040F0F5FE404645F042FF04F5135514
:1030F00042F2D0439D4AE250103505F180008CF039
:103100009BFB04F5155300220521DA851A86998563
:103110004FF482701DF044FC42F26853E05004F515
:10312000165018308CF088FB914B1A68002A00F07A
:10313000FC8242F2D0438F4AE25004F53956DFF860
:103140007082E0350836284655F03AFCC5F8008014
:1031500005F5DC75B542F6D142F64D6242F64C619A
:1031600042F64F634FF0000904F5395004F801901E
:10317000054604F80290103004F8039084F0FCF93E
:1031800005F1380070F0E6FA20357B4B7B491D6075
:10319000284642F069F9B7EE008A04F53B5304F57E
:1031A0003A52774982ED0F8A079183ED028A06949D
:1031B0007449184608AB13E90C00143000914FF421
:1031C00000711CF035FB04F54E50B0EE480A20307B
:1031D00051F0F0F804F54E50B0EE480A04F54F589F
:1031E000343050F0C7FF40461DF00EF843F2D432A1
:1031F00000236548A05004F55056C8F81830C8F8A8
:103200001C30C8F82030C8F82430C8F82830C8F876
:103210002C30213608F130001CF0F6FF88F8409081
:10322000C8F84470304668F09BF904F5505343F2F7
:1032300028411D46554A6650283383F8049005F10D
:103240005C0013601CF0E0FF4FF40043C5F884807D
:10325000C5F88030C5F888703C3528464C4942F0A6
:1032600003F904F553594B4BEE6004F552504146B7
:1032700009F120090C301D605FF0E8F8484670F055
:1032800079FD04F5A27304F554504A46394600937B
:103290002C3004F5147371F047F904F5555043F2DE
:1032A0004C550C3044F0B2FA3B4B635104F5555089
:1032B00020305EF0A7FD04F556500C3070F00AFC8B
:1032C00004F556532833DE60344A3549136004F55B
:1032D000575818464FF0FF0A42F0C6F888F80EA07B
:1032E00088F814A040462F4942F0BEF82E4B1D68C6
:1032F000002D40F05B8204F58B46683604F557508C
:1033000031461C30C3F8008046F01AFD04F57950B0
:1033100004F57B58083079F061FD08F120001CF0BD
:1033200073FF04F57C5104F57B538E4604F57D5202
:1033300043F6707C08F11C08012004F589494FF020
:10334000FF3B58865D63404681F82CA009F12009B7
:10335000CEF840B0154904F80C5082F8315029E0FD
:10336000703B1208152F0208D4341208BC3613081B
:10337000D4810020AC3B1208C8780020D89F1208E6
:10338000192F0208783B12086C6F13082C84002058
:10339000386E13085C840020003512083484002045
:1033A000444B1308CC5C1308588400207060130849
:1033B000EC3B120842F058F844F2A04A4246394623
:1033C000484684F0E3F8DA4B44F80A30D949DA4A3F
:1033D000062389F860300B78116043B12B46013326
:1033E0009BB203EB430211F83220002AF7D144F2DA
:1033F000245104F5964BD14ADFF8A0A313800BF1BA
:10340000380B04F58A4044F801B044F228552830BE
:1034100006F0B8FBCA4B635104F58A4004F58B47AC
:1034200044F26855683006F0ADFB2837C54B635150
:10343000384606F0A7FB44F2F05144F2F85044F24B
:10344000F45C04F58C4344F2046244F2A85944F25B
:10345000FC55DFF84CE36750DFF848832750BA4942
:1034600044F809A0184644F80C80103044F805E0F0
:103470001F60A1501CF0C8FE04F58C4028300025C8
:103480001CF0C2FE4FF6FF78B04BB149A6F8505081
:1034900044F2E859C6F89450A6F85280A6F8548031
:1034A00030461E6041F0E0FFA6F82080A6F8388084
:1034B00004F809507378DFF8F09244F2A86203F040
:1034C000FE0365F341034FF0010A04F58D4073706C
:1034D000483087F8D85087F8FC5044F2C86604F8A2
:1034E00002A088F0C5FE9B4BA35104F58F4044F227
:1034F000F876783006F046FB974BA35104F59040E0
:1035000044F63807383006F03DFB04F59146934BFE
:10351000E351304606F036FB914B86F8405030467A
:103520003360443044F6C40606F02CFB8D4BA351A7
:1035300004F59240043006F025FB04F5924344F66E
:1035400004121F468849A1504FF000085C37C3F8A9
:103550004480C3F84880C3F84C80384644F65C1376
:1035600004F59346039306F00DFB039B7F4A87F80F
:1035700040502436E250304644F6A41706F002FBD1
:103580007B4BE35104F5934086F84050683044F695
:10359000E81606F0F7FA774BA35104F5944044F689
:1035A0002826283006F0EEFA734BA35104F5944018
:1035B00004F5954644F66C276C3006F0E3FA2C3699
:1035C0006E4BE351304644F6AC23039304F5954724
:1035D00006F0D8FA039B703744F80390384686F813
:1035E000405086F841501CF00FFE04F596401CF048
:1035F0000BFE07F120001CF007FE07F130001CF065
:1036000003FE44F63837C6F88850584606F0BAFA32
:103610005B4BE35104F5964004F5974744F6783642
:10362000783006F0AFFA3837564BA351384604F5D8
:10363000974644F6B83B06F0A5FA7C36524B87F81D
:103640004050304644F80B3004F5984744F6FC3BB4
:1036500006F098FA50374D4B44F80B30384686F850
:10366000405086F8415044F6504304F59946039380
:1036700006F088FA039B464A87F84050143644F611
:10368000944B04F59947E2505837304606F07AFAE1
:1036900044F80B90384686F8405086F841501CF0AC
:1036A000B3FD07F110001CF0AFFD07F120001CF086
:1036B000ABFD07F130001CF0A7FD04F59B47354B2F
:1036C000C6F8885004F59A4044F80B30683786F8FD
:1036D0008CA024300AF024FE384606F053FA44F653
:1036E000E85104F59C422C48605042F6A861C2F8AB
:1036F0002880C2F82C80C2F83080C2F834807D6502
:10370000635C204643F00303635409B0BDEC028BB5
:10371000BDE8F08F284641F03BFE00287FF4DEAC88
:1037200042F2F0330122E254D8E41D6001E500BF0B
:103730005480120894691208A0790020967900201C
:1037400070831208C8831208252F02081C790020F4
:1037500000E212089C851208DC851208A086120877
:103760000887120870871208E0871208BC891208BF
:10377000288A1208F88A1208588B1208C08B12087F
:10378000808D1208188D120848861208EC8D1208D8
:10379000A08A1208B48C1208B48F1208348412085C
:1037A000212F02081D2F02085C8C120801488CF0A2
:1037B0003FFB00BF803B120810B58CF029FC064C83
:1037C000064B18602046FFF703FC20460449054AD3
:1037D000BDE81040F8F01ABA38290020302900203E
:1037E000292F02086C840020052070474FF4DC73F9
:1037F00003FB0100E03070474FF4DC7303FB010072
:10380000E0307047054A42F64863D05C00F006009D
:10381000A0F10200B0FA80F040097047382900207A
:10382000054A42F64863D05C00F00600A0F10400AF
:10383000B0FA80F04009704738290020014812F0A2
:103840005FB800BF382900202DE9F047A64D026F70
:10385000436F816F044695F92C0042F4E05743F41E
:10386000E05641F4E05127676667A16728B147F049
:10387000040246F004032267636725F019F990F803
:10388000AA2290F8D4310746002A40F0F78074222B
:1038900002FB030393F86930002B40F0F78040F0FF
:1038A000DFFB064620B190F90530002B40F0F78091
:1038B00043F64863EB563BB1226F636F42F08002E0
:1038C00043F080032267636768F0BEFF814620B142
:1038D00068F054FF002840F0F48042F64963EB5C46
:1038E0005B0707D5226F636F42F4803243F4803365
:1038F000226763677D486CF037FF18B1236F43F090
:10390000806323677A4870F0C1FD18B1236F43F4D8
:1039100080132367774BD3F80080B8F1000F06D0EF
:103920004046192144F002FE002840F0C680236F73
:1039300043F4C04342F64C622367AB5C023BDBB20C
:10394000142B0CD801226C4902FA03F31940002908
:1039500040F0C080694A1A40002A40F0EF80644875
:1039600070F09AFD18B1636F43F4801363675F488A
:103970006CF008FF18B1636F43F0806363671AF05F
:1039800005F9824622F0FAFF95F92C3053B190F8F0
:103990005430C3EB031300EB031090F86530002B99
:1039A00040F0BE80384697F8D41125F04BF818B196
:1039B000A36F43F02003A36742F649634A4AEB5CD6
:1039C000580705D542F6A563D35CD90740F1878037
:1039D00026B1336813B13379DA0769D443F6486303
:1039E000414AEB56002B42D043F6D463D35C002B04
:1039F0003DD1B9F1000F04D0484668F0BFFE002861
:103A00007ED13A486CF0C6FE18B9A36F43F08063CC
:103A1000A36743F64463EB5C013B012B0BD804F135
:103A200070010EC941F4800142F4800243F4800326
:103A300021676267A36741F67853EB5CDB070CD51F
:103A4000636F43F480736367B8F1000F05D040469D
:103A5000192144F013FE00285DD1254870F028FD9F
:103A600050B9A36F43F48013A367BDE8F087A36F39
:103A700043F08003A367BCE7BDE8F087742202FB34
:103A8000030393F86930012B7FF606AF226F636F53
:103A900042F0200243F0200322676367FFE6226FB3
:103AA000636F42F0400243F0400322676367FFE622
:103AB000A36F43F04003A36790E7236F43F4807341
:103AC00036E7226F636F42F0800243F08003226783
:103AD000636702E7636F43F4005363673FE7A36FD5
:103AE00043F48033A36773E738290020882B002034
:103AF000185E0020BC79002001281400BEC00B0015
:103B0000484668F083FE00283FF47BAFA36F43F084
:103B10008003A36775E7A36F43F48073A3679CE7F3
:103B2000DAF800305046D3F88C30984700283FF43C
:103B300039AFA36F43F00403A36733E7636F43F424
:103B4000C04363670BE700BF002070470020704749
:103B500000207047D030704700F58A70704700BF72
:103B600000F5AC70704700BF03207047002070471D
:103B7000124A42F64C63D35C033BDBB2142B14D8DD
:103B800001200F4900FA03F3194042F6AC63002903
:103B9000D35815BFD920D1205921512163B15B7968
:103BA00013F0010F08BF0846704742F6AC63D120FE
:103BB000D3585121002BF2D10846704738290020F4
:103BC0001F601500014B187B704700BF382900208B
:103BD000034B93F97C02003018BF0120704700BFEF
:103BE00038290020014B93F90E0070473829002036
:103BF00000207047F0B595B0044603A81CF004FB04
:103C000044F224531A4AD058036803A9DB6B98473F
:103C100008B915B0F0BD257E8CF020F9DDED047AF1
:103C20009FED147A0790F8EEE77A332367EE877AF0
:103C30009622002428460192059F069E00934FF687
:103C4000F87E0525572107AACDED0A7A0B940C942E
:103C50000D940E940F941094119412940897099651
:103C6000ADF84CE08DF84E5051F058FF15B0F0BD56
:103C7000382900200AD7233C00B50E4A42F6AC632F
:103C800083B0D058283050F0BBFADFED0B0A90ED2E
:103C9000000AB7EE001A31F00FFADFED087A20EED5
:103CA000270ABDEEC00A8DED010ABDF9040003B07C
:103CB0005DF804FB38290020000000000000C84225
:103CC000014807F03FBD00BFE06E002010B50C4674
:103CD0000FC931F02DFC08B9042010BD214602485F
:103CE00003F06CF8002010BD84770020014803F039
:103CF00099BD00BF38290020014803F0EFBC00BF88
:103D0000382900200148022206F030BA3829002064
:103D100008B50B6807EE103AF6EE007AB4EEE77AD3
:103D2000F1EE10FA01DC042008BD024810F010FF8B
:103D3000002008BD3829002038B50D4C42F64863F4
:103D4000E35C1B0601D5012038BD44F224556059BF
:103D500003689B69984708B1042038BD605903681F
:103D6000DB6C9847002814BF0320022038BD00BF39
:103D7000382900200B7ADB0706D50448CA6842F2CE
:103D8000B813C3581344CB60704700BF38290020D4
:103D90002DE9F0432DED048B404C42F649638FB082
:103DA000E35C9B0675D543F208430546E0589FED5A
:103DB0003C0A9FED3C8A3C3034F044FD44F22453ED
:103DC00061EE087AE658CDED050AFDEEE77A336834
:103DD0008DED061A8DED040ACDED037A5B6B95F837
:103DE0001890BDF80C80304660EE888A20EE089A64
:103DF000984707EE900AF8EEE77A336867EE887A1C
:103E00001B6BFDEEE77A3046CDED037ABDF80C5022
:103E1000984707EE900AF8EE677A9FED237A27EE2F
:103E2000888A43F20C43B4EEC78AF1EE10FA48BF19
:103E3000BCEEC88AE05846BF8DED038ABDF80C7011
:103E40004FF6FF7776F09EFA336830469B6BB0EE04
:103E5000408A9847DFED137A8DED079AB72220EE5E
:103E6000270A28EE278A1A23002401924846009345
:103E70003E2107AACDED088AADF83080ADF832506A
:103E8000ADF834708DED0B0A8DED098A0A9451F06E
:103E900045FE0FB0BDEC048BBDE8F083382900204F
:103EA0009F0CB3450AD7233C00FF7F47044B18788B
:103EB00028B9044A42F64A63D05CC0F380107047C8
:103EC000CC780020382900200B4B42F6A5629A5C82
:103ED000D10703D443F29131595C09B105207047F1
:103EE00012F01E0FFAD142F648629B5C13F0800F6D
:103EF00014BF03200420704738290020F0B52DEDB1
:103F0000068B4C4C4C4944F2245597B062591368C7
:103F10001B6C8B4203D117B0BDEC068BF0BD07467E
:103F2000104698470028F6D044F6E413E35C012BD2
:103F300068D0022B4ED043F210439FED400AE05868
:103F4000443034F07FFC6359CDED040A5B698DED9C
:103F5000051A1868B0EE409A00F586709FED370A92
:103F60008DED039AF0EE418AB0EE608A34F06AFC7F
:103F7000F1EE688AF0EE40AAF0EE609AB1EE41AA46
:103F80004FF47C663D7E8BF069FF33238C22002446
:103F900009900192284600930125552109AA8DED2B
:103FA0000A9A8DED0B8ACDED0C8ACDED0DAACDEDE3
:103FB0000E9A8DED0FAAADF85460109411941294DE
:103FC000139414948DF8565051F0A8FD17B0BDEC21
:103FD000068BF0BD63599FED190A5B699FED188A46
:103FE0001868DFED188A00F5867034F02BFCB0EE0F
:103FF000489AF0EE40AAF0EE609AB1EE41AA40F67F
:10400000C776BFE743F210439FED0C0AE058DFED9F
:104010000C9A9FED0CAA443034F014FCF0EE69AA1F
:10402000B0EE409AB0EE608AF1EE418A40F6F87642
:10403000A8E700BF382900206D3B02080AD7233CBF
:1040400000000000000000802DE9F04F2DED048BF2
:104050008DB0804619F09AFD03685C4C1B6B5C4E7A
:104060009FED5C8A9FED5C9ADFED5C8A9847271D87
:10407000814614F801ABB6F968300AF1FF352B41DF
:10408000DB0706D4BC42F4D10DB0BDEC048BBDE817
:10409000F08F98F8180053F0F9F9834698F8180053
:1040A00052F0E0FB0BF1180B8345EDDA4C4B4D4918
:1040B0001868026892688A4278D100F1D00B032D0B
:1040C000E0D8DFE805F063524102474B196844220B
:1040D00028315846FAF0F6FD19F058FD0368DB69FF
:1040E0009847D0ED027A77EE897AF1EE677A9BED08
:1040F000105ADBED0D5A9BED0E6ADBED0F6A9BED5E
:104100000B7ACDED067A25EE085A65EE885A26EE32
:10411000086A66EE886A67EE087A1923622298F8C0
:10412000180001920093C22105AA8DF82CA08DEDF4
:10413000075ACDED085A8DED096ACDED0A6ACDED2D
:10414000057A51F0EBFC9DE71868284A03681B6963
:10415000934235D100F5AC7158464422FAF0B2FDD5
:10416000D9ED027A67EEA87AC1E71868204A036899
:10417000DB68934227D100F58A7158464422FAF051
:10418000A1FDD9ED017A67EEA87AB0E71868036857
:104190009B688B4211D100F1D00158464422FAF0BD
:1041A00091FDD9ED007A67EEA87AA0E7039102931A
:1041B00090470399029B834681E798470146ECE7C5
:1041C00098470146C8E798470146D6E7283E1208B7
:1041D000382900200AD7233C0AE81C41E02E65421A
:1041E000405D0020553B0208445D0020613B020811
:1041F000593B020800F513501030002156F0DCBA8C
:10420000014811F073BB00BF38290020024A42F672
:104210004C63D05C704700BF38290020034A42F647
:104220004963D05CC0F34010704700BF38290020BC
:1042300000F5165330331B7903B9704770B590F809
:10424000453B6FF3000380F8453B04468BF006FEC8
:10425000244A1368C31AB3F57A7F054612D8224A56
:104260001368EB1A142B1ED8204E336841F28832A3
:10427000EB1A934226D894F8453B43F0010384F8A7
:10428000453B70BD04F513561036304600211560CD
:1042900056F092FA3046032156F08EFA124A13680D
:1042A000EB1A142BE0D904F513561036304615607E
:1042B00059F0E0F9304659F0FFF904F52B603AF077
:1042C000ABFAD1E704F5135010300621084A3560E7
:1042D00050F090FD94F8453B43F0010384F8453BD2
:1042E00070BD00BF787700207C77002080770020A9
:1042F000A83D1208F8B52C4C42F6AC650646635949
:104300000F4683B104F5246044F000FDF9280AD873
:1043100063595B79DB0706D559F06EF8012380F805
:10432000A4300020F8BDA7F11803202B30D8DFE817
:1043300003F0112F2F2F2F2F2F2F2F112F2F1F2F44
:104340002F2F2F2F2F2F2F2F2F2F2F2F2F2F2F1399
:104350002F1111000120F8BD307E53F097F804466C
:10436000307E52F07FFA2534844217DB0020F8BDFE
:10437000307E53F08BF80446307E52F073FA1134DD
:104380008442F3DA317E094846F096FB0120F8BDFD
:1043900030463946BDE8F84058F064B8317E0448EC
:1043A00072F05CF90120F8BD38290020145F00206C
:1043B0001468002070B50B4BD3F88032DB0706463B
:1043C0000D46144603D50848114683F0E9FC214602
:1043D000064887F05DFB304629462246BDE870401E
:1043E00053F042BF38290020D86D0020E832002069
:1043F00010B5044659F0E0FA054811F081FA06219B
:104400000346044A2046BDE8104059F019BA00BFDF
:1044100038290020BC3D120838B504460D468BF003
:104420001DFD42F69863044AD05029462046BDE857
:10443000384053F039BC00BF38290020034A92F8B5
:10444000FC3A013382F8FC3A53F0CCBB3829002007
:1044500038B54B69F7EE000A00EE103A0C460546F7
:1044600030F07CFC28B928462146BDE8384054F09D
:104470001FB8297E0248BDE8384003F045BA00BFA6
:10448000382900208A8B202A10D10B6807EE903A39
:10449000F5EEC07AF1EE10FA06DD9FED0C7AF4EE3F
:1044A000C77AF1EE10FA03D90320704753F054BFD6
:1044B000FCEEE77A82B0CDED017A054A9DF8043032
:1044C000A2F8B239002002B0704700BF00007F435D
:1044D0003829002038B58B8BCD2B0C46054605D0EE
:1044E00028462146BDE8384053F0AABB0E4A0F4883
:1044F00043F29243D15C5EF081F801460028EFD18F
:10450000A368DFED0B7A0B48DFED0B0A00EE103AE3
:104510000A4680EE270A02F0E7FB28462146BDE85E
:10452000384053F08DBB00BF38290020C45D002007
:104530000000C8428477002000000000F0B58B8B9B
:10454000D02B85B00C4600F05C8114D8162B00F0FF
:10455000398126D8142B00F0E58000F2C181112B9F
:1045600019D1CE480521022205F000FE00284ED1C7
:10457000042005B0F0BD40F6D812934200F09E81B1
:1045800031D8B3F5967F74D0B3F5C87F00F00181C0
:10459000D12B00F0D080214605B0BDE8F04059F0A5
:1045A000AFBC732B00F08380B22B00F0A281202BD4
:1045B000F1D10B6807EE903AF5EEC07AF1EE10FA01
:1045C000D6DD9FEDB77AF4EEC77AF1EE10FACFD8C8
:1045D000FCEEE77AB14ACDED037A9DF80C30A2F8F3
:1045E000B2390020C5E74AF21242934212D04AF291
:1045F0001342934200F01B814AF211429342CAD106
:10460000A64842F6A563C35CDC0740F19881002010
:1046100005B0F0BDA14F42F6A563F85C10F00106AD
:10462000F5D142F6AC63FB58587910F0010500F063
:10463000D88142F648633846FB5C23F07F0303F0E1
:10464000FF05002B00F0C7810521022205F08EFD39
:104650000028DCD02368DFED937A00EE103A44F2B4
:10466000245320EE270AF858012111F07BFE304632
:104670007FE78A4C42F6AC63E3585B79DE077FF54F
:1046800077AF20460321022205F070FD00283FF499
:104690006FAF20460121FDF7EDFD44F2E853E35CE6
:1046A000012BB4D0804837F053F9002061E70B6844
:1046B00007EE903AF5EEC07AF1EE10FAFFF658AF39
:1046C0009FED7A7AF4EEC77AF1EE10FA3FF650AF2A
:1046D000CB689FED777A00EE103AF0EEC06AF4EE08
:1046E000C76AF1EE10FA40F18F8117EE903AA26896
:1046F0009FED6F7A64686F4807EE902AFDEEE77AC7
:10470000B4EEC70AF1EE10FACDED037AACBF012288
:1047100000229DF90C1000EE904A00EE103A02F0D3
:10472000E3FA74E75D480621022205F01FFD002828
:104730003FF41EAF6BE78B68E46807EE103A0B6935
:1047400007EE903A0B68BCEEC77A06EE103A4B685B
:104750008DED037AFCEEE77A06EE903ABDF80C2078
:10476000CDED037ABCEEC66A9DF80C308DED036A80
:10477000FCEEE66A017E49488DE80C009DF80C20AD
:10478000CDED036A9DF80C3000EE104A0FF024FFC7
:10479000EFE60B68F7EE000A00EE103A30F0DEFAB2
:1047A000002840F0DA8023689FED417A07EE903AC6
:1047B000F0EEE77AF4EEC77AF1EE10FA00F1E88055
:1047C0000320D6E68B68DFED3A6A9FED367A334AEE
:1047D00007EE903A8B69F0EEE77A00EE103AF4EECD
:1047E000E67A44F22453F1EE10FA4CBF0121002185
:1047F00020EE070AD05811F0B5FD00283FF4B8AEFE
:1048000005E70B6807EE903AFCEEE77ACDED037A08
:10481000BDF80C10012900F0B280C0F0CE80022952
:104820007FF4A6AE1D4803F0A7FD0020A1E61B4BB8
:1048300042F6A5629A5CD0073FF5E9AE42F6AC625B
:104840009A585279D1077FF5E2AE42F648629A5CF7
:10485000120600F1AD8022689FED157A07EE902ACE
:10486000F0EEE77AF4EEC77AF1EE10FA07D442F6EA
:104870004C629B5C03F0EF03042B3FF4C8AE074887
:104880001121022205F072FC00285FD00A4840F690
:10489000C41109F039F800206BE600BF3829002068
:1048A00000007F430000C842206F00200000B44396
:1048B0000000003484770020707100204B68584855
:1048C00007EE903AFCEEE77ACDED037A9DF80C30D6
:1048D000012B0CBF0021012170F0E4FE002048E60E
:1048E00050480921022205F041FC00283FF440AE67
:1048F0008DE64B6807EE903AF5EEC07AF1EE10FACD
:104900007FF736AE0B68DFED486A07EE103AB4EE7B
:10491000E67AF1EE10FA6BDCDFED446A414A9FED76
:10492000440AB4EEE67A43F21043F1EE10FA27EEB1
:10493000800AD0584BDD7AF0F3F9002019E6052102
:10494000022205F013FC00287FF461AE02210A4622
:10495000344805F00BFC00200BE66368DFED350AF8
:1049600000EE103A30F0FAF980F00102D2B22D4890
:1049700001210FF0CBFF00283FF4FAAD47E62E48A7
:1049800067F0C6FB2748322100F044FD0020F0E527
:10499000244A42F64863D35C1D0609D46368DFED00
:1049A000270A00EE103A30F0D9F900283FF4E0ADC4
:1049B0001C4810F0CDF80020DBE51F48002167F00F
:1049C000A7FB1848312100F025FD0020D1E57AF041
:1049D00095F90020CDE50921022205F0C7FB284604
:1049E000C7E5012138460A460FF090FF2846C0E58A
:1049F0000C4A9FED0F0A43F2104327EE800AD0586D
:104A00007AF09CF90020B4E5F7EE000A30F0A6F940
:104A100000283FF4ADADE268236800EE102A66E698
:104A2000F85E0020382900209A9939403333F33F4B
:104A30000000C84200D03A45E05E00200098A5463C
:104A400038B54A7A8B7A0C46C97A42EA032343EA9C
:104A500001439D2B054605D028462146BDE8384038
:104A600053F0B2B80E4A0F4843F29243D15C5DF066
:104A7000C5FD01460028EFD1D4ED057A9FED0A0A65
:104A80000A48DFED0B0AF8EEE77A0A4687EE800A5D
:104A900002F02AF928462146BDE8384053F094B880
:104AA00038290020C45D00200000C842847700201F
:104AB000000000002DE9F0432DED028B4A7A8B7A3D
:104AC0000546C87A42EA032343EA0043872B9DB098
:104AD0000C4618DC862B80F21282542B36D023DC55
:104AE000452B00F0F480522B00F01D822BBBAF4D04
:104AF000CA79B5F90C309A4223D18BF0AFF942F65E
:104B00009863E8501DE0F62B00F0078200F3468121
:104B1000A62B00F03981F32B00F06782952B0CD186
:104B2000A34878F0B9FA0CE06D2B00F02D81842BAE
:104B300000F0DD81562B00F04D812846214659F0CA
:104B40003BFF1DB0BDEC028BBDE8F083CA78352A6F
:104B50004FF0000328BF35220C310CA80C930D93A5
:104B60000E930F9310931193129313931493159321
:104B70001693179318938DF86430FAF0A3F844F263
:104B800024538A498B4AC85803681B6C9342D8D077
:104B900098470028D5D09DF86440012C02D0E31F2F
:104BA000022BCED8BDF8603013F0070618BF0126DF
:104BB00013F0380F4FF0000214BF0127002713F441
:104BC000E07F14BF4FF001094FF00009C3F38028C4
:104BD000C3F3C0250292039204921EBB9FED766A36
:104BE000DDED0E6A9DED0F7ADDED0D7A66EE866ADB
:104BF00027EE467A67EE867AA4F10803012BCDED05
:104C0000036A8DED047ACDED027A40F2EF82E31F64
:104C1000022B00F2C18269487CF0B2FA014602A878
:104C200033F0E6FD0023059306930793C7B99FED84
:104C3000626ADDED116A9DED127ADDED107A66EEA5
:104C4000866A27EE467A67EE867AA4F10803012B7E
:104C5000CDED066A8DED077ACDED057A40F2F18152
:104C6000B8F1000F40F01E829FED550ADDED167A77
:104C70009FED517A67EE807AA4F10802012A27EEAF
:104C8000870A8CBF00220122002D40F00F82DFED49
:104C90004C0ADDED177A9FED487A67EEA07A67EE51
:104CA000870A002E40F00582002F40F06482B9F19F
:104CB000000F3FF446AF85F001030093019288F0A6
:104CC000010302A905AA3F480AF0E6FE39E7374E7C
:104CD000CA79B6F90C309A427FF433AFCA780B2AFE
:104CE0004FF0000428BF0B220C310CA80C940D943B
:104CF000ADF838408DF83A40F9F0E4FF9DF83A20DD
:104D0000B6F90A309A427FF41CAFBDF93480A04551
:104D1000FFF617AF8BF0A2F8D6F8001BBDF93220D2
:104D2000009007464FF47A7328469FED270A0194B6
:104D300058F02EFB0123D6F8041BBDF93020019357
:104D400028464FF47A739FED200A009758F020FB15
:104D5000D6F8081B9FED1D0A0097424628462346B9
:104D6000019458F015FBD6F80C1BBDF936200097BE
:104D70004FF47A73019428469FED130A58F008FB0C
:104D800042F69863F750DCE60821084810F09AFDD7
:104D900021460246284654F0DDFCD2E6B3F5A57F55
:104DA00040F0B3800A486BF033FCCAE63829002093
:104DB000806700206D3B02080000C8420C5D0020A7
:104DC000E02E6542DC7200200000FA4400007A44C4
:104DD000882B0020CA78352A4FF0000328BF3522DF
:104DE0000C310CA80C930D930E930F931093119309
:104DF00012931393149315931693179318938DF896
:104E00006430F9F05FFF44F22453B349B34AC85801
:104E100003681B6C93423FF494AE984700283FF41C
:104E200090AEBDF8604014F007064FF0000318BFC5
:104E30000126059306930793002E00F06381C4F3C7
:104E40008022002A40F006819FEDA50ADDED167A4A
:104E50009DF864109FEDAA7A67EE807A08390129DF
:104E600027EE870A8CBF00210121C4F3C023002B49
:104E700040F0ED80DFED9A0ADDED177A9FEDA07A24
:104E800067EEA07A67EE870A14F0380F14BF01208E
:104E9000002014F4E07F14BF01240024002E40F011
:104EA000DD80002840F05A81002C3FF44AAE9FED8F
:104EB000946ADDED116A9DED127ADDED107A0191B3
:104EC00083F0010366EE866A27EE467A67EE867AFD
:104ED000009305A982F001038248CDED096A08AA72
:104EE0008DED0A7ACDED087A0AF0D6FD29E67E48E6
:104EF00043F0FAFA21467D486BF08AFB21E6297ED1
:104F00007B48224646F07CF81BE6FFF616AEA3F57A
:104F10001C53113B022B3FF610AE297E75482246EA
:104F200071F088FF0DE6CA786B4D272A4FF0000319
:104F300028BF27220C310CA80C930D930E930F93CE
:104F400010931193129313931493ADF854308DF87A
:104F50005630F9F0B7FE44F22453604AE85803682B
:104F60001B6C93423FF4EDAD984700283FF4E9AD48
:104F70009DF8564014F0C00F7FF4E3ADDFED5E0AFC
:104F80009DED140AB7EE001A30F096F8F6EE000A1E
:104F9000B0EE408A2FF0E2FE002840F0FA80F6EEF4
:104FA000007AB4EEE78AF1EE10FA43F2104340F3D0
:104FB000118138EE678AEB5838EE088A93ED080ABB
:104FC00028EE000A0E9A099284F004020F9E109DAA
:104FD0000D9B4448DDED130A0A96C2F3800208A92E
:104FE0000B9508930AF0D0FDABE5CD783D2D28BF99
:104FF0003D2500213D220CA8F9F08CFE2A4604F143
:105000000C010CA8F9F05EFE0C9D0D9E0E9C35B9AE
:105010002EB924B90121304802F004FC91E508A81A
:105020001BF0F2F8354B2C480A9583FB0423E41758
:10503000C4EBA30408A901220B96099402F04EFBCD
:105040007FE5254805A906AAFDF71AFE08E6DFED6B
:105050002A0A19E79FED280A002106E700287FF4B5
:1050600070AD002C3FF46DAD9FED256ADDED116A4A
:105070009DED127ADDED107A009166EE866A0121CF
:1050800027EE467A67EE867A4A404B4001911548F2
:10509000CDED096A08A98DED0A7ACDED087A0AF0FE
:1050A00073FC4EE59FED140A0022EDE5DFED120AD8
:1050B000F7E5002F7FF445ADB9F1000F3FF441ADA6
:1050C0000121009285EA010388EA01020191054865
:1050D00005A90AF059FC34E5382900206D3B020887
:1050E000E02E6542DC720020F0430020882B002077
:1050F000145F0020146800200000000067666666E8
:105100000000C842DDF834800E9F4046394630F03A
:10511000E9F900283FF415AD28469DF8641002AA6D
:1051200058F01EF900283FF40CADDDED0F7A1FEDAD
:105130000C7A029B009367EE877A4146FDEEE77A90
:105140003A4617EE903A08A81BF076F808A805A989
:105150001BF012FB00283FF4F4AC70E6002C3FF487
:10516000F0AC009182F0010283F0010305A922480E
:105170000AF0F6FAE5E4B9F1000F3FF4E2AC009270
:1051800085F0010388F0010202A91B480AF0E8FA41
:10519000D7E49FED1A0A15E718F0F8FC90F864318F
:1051A000DB077FF5CEAC08A815497CF053F818F062
:1051B000EDFCD0ED567A9DED046AB8EEE77ADDEDB0
:1051C000097AF8EEE76A77EE067A77EEE67ACDEDC1
:1051D000047A27E5EB5837EEC88AD3ED097A38EE22
:1051E000088AF0EEE77A27EEC80AEBE6054802A93E
:1051F00003AAFDF745FD0AE5DC720020000000006F
:105200000C5D002038290020094BD3F8802292073A
:105210000BD543F2C432DFED077A9B5800EE103A0B
:10522000B8EEC00A80EE270A704752F0FFBB00BFFD
:10523000382900200000C84238B50A4A43F2DC533E
:10524000D3563BB952F0EAFE41F6CF140025204375
:10525000294338BD52F0E2FE41F6CF340025204309
:10526000294338BD38290020F0B543F208470446E9
:10527000C0599FED3B0A8DB03C3033F0E3FA0CABE4
:10528000CDED0A0A8DED0B1A8DED090A13E9070021
:1052900003AD85E8070006AB9DED050A83E807002E
:1052A0002FF08EFE04F5316604F501512A46304692
:1052B00020318DED050A4BF029FE43F20C4042F2FD
:1052C000E83242F6AC632058A158E258E359009006
:1052D00030464CF0EFF920464FF4805110F0F2FACE
:1052E00008B90DB0F0BDE0591E4A03689B689342AF
:1052F00030D1D03000F12C02C52130464CF038F9C5
:1053000043F20843184AE0580368DB68934225D10A
:1053100000F58A7000F12C02C62130464CF028F9C5
:1053200043F20843114AE05803681B69934213D1C2
:1053300000F5AC7000F12C02C72130464CF018F992
:1053400043F20C433046E258C82154324CF010F975
:105350000DB0F0BD9847CDE79847EBE79847D9E700
:105360009F0CB345553B0208593B0208613B0208BC
:1053700038B500F50155203500F531642946204641
:105380004BF078FC2046294649F002FA204629468F
:10539000BDE8384049F098BA30B589B000230446DA
:1053A00042F6AC650822A320952101930293039352
:1053B000049305930693ADF81C308DF81E308DF8DC
:1053C00006208DF804008DF805108AF04FFD635912
:1053D000CDF80700D3F8C020CDF80B1003F1B400CE
:1053E000CDF80F204EF00CFF03686259CDF8133052
:1053F00004F544533033D2F8C4201B68CDF81B2089
:1054000004F5316001A91B22CDF8173046F074FD78
:1054100009B030BD00F5316047F03CB970B50D46BC
:1054200084B04FF6FF711446064610F04BFAE0B117
:1054300000230522A3209521009301938DF80220DB
:10544000029303938DF800008DF801108AF00EFD91
:105450001022CDF80300CDF8071006F5316069463B
:105460008DF80B50039446F05FFD04B070BD00BF93
:1054700070B50D4684B04FF6FF711446064610F025
:1054800021FAE0B100230622A32095210093019385
:105490008DF80220029303938DF800008DF801101F
:1054A0008AF0E4FC1022CDF80300CDF8071006F5D1
:1054B000316069468DF80B50039446F035FD04B019
:1054C00070BD00BF2DE9F0432DED028B87B00024A5
:1054D0004FF0950C4FF0090E4FF0A3090094B0EE79
:1054E000408A16461D4680460F4601940294039456
:1054F0000494ADF814408DF801C08DF802E0BDF9B8
:1055000040408DF800908AF0B1FC1622CDF80300DF
:10551000CDF8071008F5316069468DF80B708DEDF8
:10552000038AADF81060ADF81250ADF8144046F0A3
:10553000E3FC07B0BDEC028BBDE8F08338B590F812
:10554000653E42F6A862DD00815CEA1800EB82024B
:10555000044692F8780E10F0010201F001014CD0DF
:1055600082074DD4C9B1EA1804EB820292F8782E72
:10557000C2F34002002A47D142F6A865635D62F398
:105580000003635547F0E4F8635D13F0010F0CBFAF
:1055900004220022122147F0A9F894F8A83F42F60D
:1055A000A865C3EB031304EB0313625D93F8B93FE3
:1055B000C2F3400199420DD063F34102625547F0B6
:1055C000C7F8635D13F0020F0CBF04220022032111
:1055D00047F08CF842F6A86294F85C1DA35CC3F314
:1055E0008100884218D061F38303A35404F531602D
:1055F0004321BDE8384047F04DB80029BCD1CCE785
:105600004207AFD50029C8D12B4404EB830393F89C
:10561000782EC2F38002AFE738BD00BF2DE9F04716
:1056200043F6486300F57954C35694B0083413B96F
:1056300014B0BDE8F0870023054669462046049370
:1056400005930693009301930293039377F0DCFC98
:1056500002A9204677F0FCFC204604A977F0C4FCA0
:1056600000230B22A3209521079308938DF81E2079
:1056700009930A930B930C930D930E930F9310932E
:1056800011931293ADF84C308DF81C008DF81D105D
:105690008AF0ECFB43F6D463CDF81F00EB5CCDF849
:1056A000231020468DF8273077F050FC43F67462C3
:1056B00043F6A06143F64B63AA5855F801A015F8CC
:1056C00003908DF82800DDF80080DDF804C0DDF8D7
:1056D00008E0039F049E059C069BCDF8452005F538
:1056E000316007A93222CDF849A08DF84D90CDF850
:1056F0002980CDF82DC0CDF831E0CDF83570CDF84A
:105700003960CDF83D40CDF8413046F0F5FB14B09E
:10571000BDE8F0872DE9F0438BB000244FF0A30CD7
:105720004FF0950E0C27164601941D46814688467B
:10573000029403940494059406940794089409949D
:105740008DF804C08DF805E08DF806708AF08EFBA8
:10575000D6F800C0D6F804E0B7686C682E68AB686D
:10576000CDF80700CDF80B1009F5316001A924220E
:105770008DF80F80CDF810C0CDF814E0069707968D
:105780000894099346F0B8FB0BB0BDE8F08300BF66
:1057900038B5044600F5316510F0B2F80C49024600
:1057A000284646F0F7FA42F64D6342F64C62284628
:1057B000A15CE25C46F0CAFC04F50150203018F010
:1057C000BBF904F68830BDE8384022F0B5B800BF18
:1057D000BC3D120800F531600149972246F0A6B998
:1057E000C43E1208F0B52DED028B93B012A9002330
:1057F000044600F5575041F83C3D1C30012244F06E
:10580000D5FC08B95C4B039344F22453E058036879
:105810001B699847002840F0A08043F20C43DFED5D
:10582000578AE35893ED487AD3ED3F7A43F29833A1
:10583000BDEEC77AE35C8DED017AC7EEA88ABDF8AC
:105840000460002B00F0928004F54E53D3ED057AEE
:105850009FED4B8A27EE888A00230222A320952100
:105860000493059306930793089309930A930B9364
:105870000C930D930E930F9310938DF844308DF885
:10588000122042F6AC658DF810008DF811108AF0E8
:10589000EDFA43F208436259E358CDF81300D3F808
:1058A0009070D3F89430CDF81F3002F12800CDF875
:1058B0001710CDF81B704EF0A3FCDFED320A90ED0F
:1058C000000AB7EE001A2FF0F7FB10EE103A6059FD
:1058D000CDF8233003682C4A1B68934249D190EDE0
:1058E000230A04F54F5518EE903A143510EE102A9D
:1058F0002846CDF82720CDF82B307BF049FCDFED92
:105900001F7A039BCDF83D3080EE270A41F67A528C
:1059100043F29C31A25AADF83B206158CDF83310C8
:105920002846ADF8416018EE103A10EE102ACDF876
:105930003730CDF82F207BF02FFCFDEEC07A04F538
:10594000316017EE903A04A93522ADF8433046F0A5
:10595000D3FA13B0BDEC028BF0BD43F29833DFED08
:10596000098AE35C0026002B7FF46EAF9FED078A67
:1059700072E79847B5E700BF2292CA7F0000C8428D
:105980000AD7233C00000000312A02082292CA7F75
:10599000F8B50546083063F03FF905F1280083F0BB
:1059A000AFFD05F168006DF011FD284AC5F8B4207F
:1059B0000023274A2748C5F888304FF08041C5F8B2
:1059C0008C30C5F89030C5F8B030C5F8B820C5F8AF
:1059D000A800C5F8AC1005F1BC001F491F4F83F0AB
:1059E0009DFE05F5C07066F0A1FE1B4905F5E4704B
:1059F0006AF036FD05F502705AF09EF8184BC5F8AE
:105A0000083205F5067405F58B66204659F0B8FC9A
:105A100044F8247BB442F8D12046124C5BF094FA4F
:105A2000002105F6A80082F0E7FCC5F8244905F638
:105A30002810A4F25C6485F087FF2846C5F8B049B9
:105A400009493FF011FD2846F8BD00BF0AD7233CA5
:105A50000000E0400000C841944D0020C47E1208C0
:105A6000447E12085C760020487C12082DE9F04143
:105A70002DED028B554D9FED568AADF51A7D2EAF5B
:105A8000A5F19001804690223846F9F01BF90FCD20
:105A900012AE0FC60FCD0FC695E80F0052AC86E8C8
:105AA0000F0005F110014FF490722046F9F00AF949
:105AB00005F5987EBEE80F000AAE0FC69EE80F00FF
:105AC00005F5A87586E80F000FCD1EAE0FC60FCDE9
:105AD0000FC60FCD0FC695E80F0098F85E50DFEDAA
